:020000040000FA
:040000000EEF00F00F
:020004000000FA
:0400080042EF00F0D3
:04001800CBEF00F03A
:04001C002B6A2C6AB5
:10002000036A056A066A23EC02F034EC02F0AFECD6
:1000300001F006A6FAD739EC01F0829A82988296EE
:10004000A00E0D6E056A066A076A086AF00E3B6E1E
:100050003A6EF28CF28E068A3E6A08A205D005AC92
:1000600003D0EFEC00F0059CAFEC01F0D5EC01F013
:1000700007B02DEC01F005B21BEC02F0C2A2C28267
:100080002DEF00F008B002D0A4B212D09EB060D024
:100090009EBC03D0A4B880D01100C3CF2AF0C4CF37
:1000A00029F0C3CF04F0C4CF03F0058C9E9C11004F
:1000B000A492406A73EC00F01100A49466501026DC
:1000C00067500F22D8900F32103273EC00F01100FD
:1000D000A4966450102665500F22D8900F3210322B
:1000E00073EC00F01100088E08A6120008B206D0CA
:1000F0003B3E120008823A0E606E12000880A39206
:10010000EA0E0F6404D0390E606E82880AD0E40EC5
:100110000F6404D03D0E606E829803D03E0E606E78
:1001200082780FC0CFFF10C0CEFF9D808276120074
:1001300006AA03D000EE19F002D000EE21F08050A4
:10014000E81C1C0BE840E8403F6EEB503E6E12008E
:100150009E9008B213D0089008B609D0B00ECF6EAA
:10016000F00ECE6E44EC02F03A4A08861100D80E2A
:10017000CF6E780ECE6E44EC02F01100089008822B
:1001800098EC00F03EC06BFF0FC0CFFF10C0CEFF59
:10019000A3829D8011001100A498404A6B6A373EEB
:1001A00002D0356A09D082B207D0352A200E3564D4
:1001B00003D06C926C80078011004E0E33620AD01F
:1001C000200E346407D00584336A346A07B0827A1B
:1001D000A4981100343E1100332AA4981100400E57
:1001E000036421D0400E0326D8A002D0FF0E036E78
:1001F000FD0E0360036E1AEC01F003504F0DF3384F
:100200000F0B2C6EF438F00B2C12F4380F0B2B6EF6
:100210006E822B50786E766E746E2C50796E776E7F
:10022000756E6E921200786A766A746A796A776A75
:10023000756A1200630E035C9D0DD890F432F332A0
:10024000D890F432F332D890EF0EF322D80EF42285
:10025000F4CF0FF0F3CF10F01200828A82888286EA
:100260000582F7EC01F06C940790069606920698CA
:100270001200110EC26E100EC16E320EC06E800ED4
:100280009A6E000E996E030EB86E000EB96E000ED7
:100290007F6E370E7B6E010E7A6E4F0E6F6E010E03
:1002A0006E6E000E6D6E000E6B6E000E6A6EB30EFB
:1002B000800E6C6E000E716E000E706E796A776A39
:1002C000756A786A766A746A800E7E6E9284928607
:1002D0009288010EB76E020E636E000E626E000E03
:1002E000616E3A0E606E000EB66E070E946E810E51
:1002F000CD6EC30ECF6EFF0ECE6E000E196E210EA8
:100300001A6E060E1B6E240E1C6E180E1D6E090E44
:100310001E6E120E1F6E000E206E000E216E090E54
:10032000226E240E236E210E246E120E256E180EE0
:10033000266E060E276E000E286E036A296A2A6A48
:10034000086A810EAF6E240EAC6E900EAB6E949C5C
:10035000948E9D8CA3889D80930ED06E120082B0E7
:10036000BAEF01F006B01200CFEC01F006A01200C7
:100370000682120082B4C5EF01F006B01200CFEC85
:1003800001F006A012000684120006A012000690DA
:10039000068606A202D006781200067A1200092EFE
:1003A000120006808F0E096E120006A6120006A229
:1003B000E9EF01F006A8E3EF01F007EC02F0069682
:1003C0000692828A1200F7EC01F006960692829A53
:1003D000120006A412008278829AF7EC01F0D5ECA4
:1003E00002F007EC02F006960694828A12009D9CA9
:1003F000A392A396A394A3989D906B6A786A766A59
:10040000746A796A776A756A059C036A12000688BD
:10041000036A296A2A6A9D8CA3829D80A388056A43
:10042000800E6C6E079007920794086A3E6AF00E81
:100430003B6E3A6E12000C3E12000D3E1200827AA4
:10044000827882761200270EC26E000EC16E320EC6
:10045000C06E000E9A6E000E996E020EB86E000EFF
:10046000B96E070E946E1200829A82988296400EA0
:10047000C4641200828A800EC46412008288D00E86
:10048000C46412008286120089EC02F006AA07D02A
:10049000050E396002D0392A07D0396A05D03906ED
:1004A000D8B002D0050E396E3950D8A405D0120E3E
:1004B0006B6E3E6E827A120039500108D8A405D0C6
:1004C000180E6B6E3E6E827A120039500208D8A464
:1004D00005D0090E6B6E3E6E827A12003950030809
:1004E000D8A405D0210E6B6E3E6E827A1200395070
:1004F0000408D8A405D0240E6B6E3E6E827A1200DA
:1005000039500508D8A41200060E6B6E3E6E827A32
:100510001200640E036003D02C6A2B6A04D0A50E6F
:100520002C6E030E2B6E6E822B50786E766E746E70
:100530002C50796E776E756E6E921200089E0A0EC0
:10054000D0EC02F00D0ED0EC02F03E50410FD0EC9A
:1005500002F03F50410FD0EC02F012003EC03CF0E0
:10056000B7EC02F039C03CF0B7EC02F012003C509E
:10057000F00BE838300FC7EC02F0D0EC02F03C5042
:100580000F0B300FC7EC02F0D0EC02F012003D6E02
:10059000390E3D6403D03D50070F12003D5012004C
:1005A0009EA8D0EF02F0AD6E1200010E0A6EFF0E93
:1005B0000B6E0B2ED9EF02F00A2ED7EF02F00A6A6B
:0405C0000B6A1200B0
:020000040030CA
:0100010006F8
:010002000AF3
:010003003EBE
:010004001CDF
:010005009D5D
:010006008079
:010008000FE8
:01000900C036
:01000A000FE6
:01000B00E014
:01000C000FE4
:01000D0040B2
:00000001FF
