:020000040000fa
:080000000001040000000000f3
:020000040000fa
:10020000af892000609f20000001880000000000ee
:10021000050007000c0007005c020200000000005f
:100220000040da000000fe004440a9000000200069
:100230000000e0000300320000002000a001880060
:100240004440a800000006004048200001002000b3
:100250001600370062004000e080480091018800ed
:100260009001ba0062004000e080480091018800df
:100270009002ba0062004000e08048000002eb00fb
:100280006028e10005003a008301e900070033001f
:10029000038009000059eb00040037006128e100e9
:1002a000010032000082eb00050007009101880088
:1002b0001001ba000200e000e6ff3a00000005006d
:1002c000910188008002780062004000e0804800d0
:1002d0003559ba008301e900080032002559ba00f7
:1002e0008301e900050032000400e000f4ff320061
:1002f00015d9ba008301e900f1ff3a0000000600b9
:10030000839f68000100e00002003d0060001000d3
:10031000e08018000300e00002003d0060011100d1
:10032000e0811900050007004f00e00002003b00db
:1003300060001000e0801800000006006022b80095
:10034000060220000000d0008180d2000482d2008a
:100350008582d2000000a0000202520083825a006f
:1003600003003b000202420083824a000000a10019
:100370000603e900f3ff3a0000000600809fbe007c
:100380000000fa0085e0a9004116800080032000eb
:1003900000806000a0428800a04280004300de0090
:1003a000a0428800a04280000000d000a188200068
:1003b0000100400010007800a00e8800100020000e
:1003c0005408e3000f003a005a48ec005ae8b7001e
:1003d000e54f50000b003a0051088000b142880000
:1003e0000000200050088800c1428000b042800018
:1003f000008040000000d100c042880010c0b3005f
:100400005ae8b7000080fa004f00be000040060026
:100410000000fa008540a9000080fa0000400600b4
:10042000809fbe000000fa008520a900f0428000f5
:100430009110800001487800f0428000d1c0b300e4
:1004400090cf100004003a005048a8000086200019
:10045000f042880003003700f04280000000e8000e
:10046000f04288000080fa004f00be000040060005
:10047000801f78000000fa008560a900804280009b
:10048000610060000000e0000800320000148000fd
:100490000000d100b00e8800b00e8000c00e8800b1
:1004a000b00e8000d00e88005028a8000080fa000e
:1004b0004f007800004006000000fa000000200015
:1004c000e016880000fc2f00c0168800000e2000f7
:1004d00000068800000e20002006880085e0a900a4
:1004e0008de0a800650007005400070081000700a8
:1004f0007700070000002000c0428800cfc2bf0084
:100500000080fb004600de000080fb006100600010
:100510000000e000f9ff3a0000000000cfc2bf0079
:100520000080fb004600de000080fb0061006000f0
:100530000000e00003003a00a0002000e0000700f7
:10054000f6ff370041168000800320000080600025
:10055000a0428800a04280004300de00a042880044
:10056000a04280000000d000a188200001004000cf
:1005700010007800a00e880070772000400e8800e0
:100580005008a80013e1a80010c0b3005ae8b70053
:100590000f42a800d000200080108800a00020009a
:1005a0008010880040062000c500070080428000bf
:1005b000610060000000e000d0ff3200cfc2bf0049
:1005c0000080fb004600de000080fb006100600050
:1005d0000000e00011003a0000702000400e88008a
:1005e00000002000a00e880000002000701088008d
:1005f0005008a900cfc2bf000080fb004600de000b
:100600000080fb00610060000000e00003003a0091
:10061000a0002000aa000700f6ff370080428000fb
:100620000000d100610060000000e000dfff320048
:100630003d000700ddff3700000000000000fa0069
:1006400080ff2f004015880040062000001588001c
:1006500000202000101588002000200030158800a0
:1006600050002000201588008560a9008d60a8003a
:10067000a1e2a8000080fa00000006000000fa00d5
:10068000f00f2000200e880000702000400e88002f
:1006900000002000a00e880040062000b00e880058
:1006a00040062000c00e880040062000d00e8800c2
:1006b000200e8000300e880000f02000500e8800d0
:1006c00000002800000e88000080fa0000000600ec
:1006d0000000fa00000320009008880000002000bd
:1006e000500888000080eb00700888000080fa0045
:1006f000000006000000fa000000280060108800da
:100700000000200070108800f0012000a010880078
:1007100000862000f04288005048a9005068a900d7
:100720000080fa00000006000400fa00c0428000c9
:100730006101b80060342c0031022000f0fe070097
:10074000000f78001e0078000271220011000900dd
:100750000280d800204798002e4090000004e0005e
:10076000050032002e4090008080fb0000712200c6
:100770000088b9001e0f10002e4090000043b0000a
:100780006fe8b7001e007800823e200011000900cb
:100790000280d800204798002e4090000004e0001e
:1007a000050032002e4090008080fb00803e20003b
:1007b0000088b9001e0f10002e4090000043b000ca
:1007c00070e8b7001e007800420620001100090002
:1007d0000280d800204798002e4090000004e000de
:1007e000050032002e4090008080fb004006200073
:1007f0000088b9001e0f10002e4090000043b0008a
:1008000071e8b7001e007800a20020001100090066
:100810000280d800204798002e4090000004e0009d
:10082000050032002e4090008080fb00a0002000d8
:100830000088b9001e0f10002e4090000043b00049
:1008400072e8b70001c3b3001ec0400073e8b700f0
:1008500070862000e0428800030007005028a900ad
:100860000080fa00000006000000fa00000000000e
:10087000e04280001004e0000f0032000fc2bf0011
:100880000080fb000000d1000080fb0061006000e0
:100890000000e000f9ff3a00c28520001200780055
:1008a000800078009180fb00811088000000e80043
:1008b00000097800eeff37000080fa000000060013
:1008c0000400fa00000f78001e0fe9000080eb0022
:1008d0009e0f10000a003200000020001007980050
:1008e0009e009000703e2000808f5000f6ff3e007a
:1008f0001e0090000000e80010079800f8ff370085
:080900000080fa00000006006f
:020000040000fa
:10090800500800001000000000000000600800000f
:100918003a00000002000000303030003030300073
:100928000053700065656400203d200030303000c1
:100938003030200072706d000d00000000100200c1
:100948000420040002010800100801002000000033
:100958000000010020100800010804000204200023
:0c09680010020000000000000000000071
:020000040000fa
:10000800ba040000ba040000ba040000ba040000f0
:10001800ba040000ba040000ba040000ba040000e0
:10002800ba040000ba040000ba040000ba040000d0
:10003800ba040000ba040000ba040000ba040000c0
:10004800ba04000010020000080200003802000094
:10005800ba040000ba040000ba040000be0100009f
:10006800ba040000ba040000ba040000ba04000090
:10007800ba040000ba040000ba040000ba04000080
:10008800ba040000ba040000ba040000ba04000070
:10009800ba040000ba040000ba040000ba04000060
:1000a800ba040000ba040000ba040000ba04000050
:1000b800ba040000ba040000ba040000ba04000040
:1000c800ba040000ba040000ba040000ba04000030
:1000d800ba040000ba040000ba040000ba04000020
:1000e800ba040000ba040000ba040000ba04000010
:0800f800ba040000ba04000084
:020000040000fa
:10010800ba040000ba040000ba040000ba040000ef
:10011800ba040000ba040000ba040000ba040000df
:10012800ba040000ba040000ba040000ba040000cf
:10013800ba040000ba040000ba040000ba040000bf
:10014800ba04000010020000080200003802000093
:10015800ba040000ba040000ba040000be0100009e
:10016800ba040000ba040000ba040000ba0400008f
:10017800ba040000ba040000ba040000ba0400007f
:10018800ba040000ba040000ba040000ba0400006f
:10019800ba040000ba040000ba040000ba0400005f
:1001a800ba040000ba040000ba040000ba0400004f
:1001b800ba040000ba040000ba040000ba0400003f
:1001c800ba040000ba040000ba040000ba0400002f
:1001d800ba040000ba040000ba040000ba0400001f
:1001e800ba040000ba040000ba040000ba0400000f
:0801f800ba040000ba04000083
:020000040000fa
:040974000000fe0081
:00000001FF
