:020000040000fa
:080000000001040000000000f3
:020000040000fa
:100200008fa1200060bf20000001880000000000d6
:10021000050007000c000700800c02000000000031
:100220000040da000000fe004440a90000ea20007f
:100230000000e0000300320000002000a001880060
:100240004440a80000000600a0a7210001002000f3
:100250001600370062004000e080480091018800ed
:100260009001ba0062004000e080480091018800df
:100270009002ba0062004000e08048000002eb00fb
:100280006028e10005003a008301e900070033001f
:10029000038009000059eb00040037006128e100e9
:1002a000010032000082eb00050007009101880088
:1002b0001001ba000200e000e6ff3a00000005006d
:1002c000910188008002780062004000e0804800d0
:1002d0003559ba008301e900080032002559ba00f7
:1002e0008301e900050032000400e000f4ff320061
:1002f00015d9ba008301e900f1ff3a0000000600b9
:10030000a2002000010020000100070000000600fc
:100310000800fa00889fbe008a9fbe008c9fbe0026
:100320008e1f78008006780001067800820478002d
:1003300000047800010037000804e8001800fb0002
:10034000860007000000e000fbff3a0098407800bc
:10035000d0c2b30080cf50000400320000c0e900da
:10036000d0ef9f0080cf500002003a00d1ef9f00f5
:100370000804e8000900e00046003500e18f540061
:100380004400320040022000808f540041003c00b5
:100390000900e0000d003400f08f54001a003a000c
:1003a00000c3b300984f100017003a009840900027
:1003b00080c7b30080cf50001200320080c5b30068
:1003c00080cf500010003a000e00370000c3b30089
:1003d000984f100002003200a90020000a003700e8
:1003e0009840900080c7b30080cf500004003200d6
:1003f0008900200080c5b30080cf500002003a0081
:10040000090120000884e800d8b79f0000c3b300aa
:10041000984f100002003a00d84f1000feff320043
:100420006055b800080778000e003700fab79f0043
:100430008bbf9f00e09c200000425200c4ef9f0051
:100440006149b9000a00be00730007004fea970037
:100450000401fb00cf91de000005410081854900c9
:100460000804e8001800fb00440007008000780042
:1004700009017800e09c2000470007000002780096
:100480000000e000e9ff3a005fb09700880f5000dd
:1004900005003a000c00e000010032000d0e78006b
:1004a0006000b800270037008e005400309f200005
:1004b000694078000000fb00008050001700330006
:1004c0004240a9000f003c004fe997000200fb00ea
:1004d000cf80de000000550081805d00800f550058
:1004e000818f5d00070039006149b9003a000700bb
:1004f0007fb197008fb99700820f5000838f58000b
:100500000600320020022000504e88000085eb00db
:100510008085eb00b3c2b300d3ef9f00d0c2b3001d
:100520005fea9700804f520002003a006005150014
:10053000e0851d000c00e00001003200080e78008c
:100540000a00be004f0778004f06be004f05be00f0
:100550004f04be000080fa00000006006900e100c0
:10056000040035006d00e100030034000002b1001a
:100570000100320000000500100005008000780036
:100580001104b100030035009101b10001003c00ed
:100590000050a000000006000200e000050032004c
:1005a00090cf1000040032000000e8000201e900d2
:1005b000fbff3a00000020000000060000000600db
:1005c000604e80000000e0000100320000000100e9
:1005d000a09c2000000006006022b8000602200057
:1005e0000000d0008180d2000482d2008582d20037
:1005f0000000a0000202520083825a0003003b0068
:100600000202420083824a000000a1000603e900c2
:10061000f3ff3a0000000600020ab900001bb9000f
:100620000200b80081004200810043000000060083
:10063000839f68000100e00002003d0060001000a0
:10064000e08018000300e00002003d00600111009e
:10065000e0811900e0ff07004f00e00002003b00ce
:1006600060001000e0801800000006001104240063
:10067000013b88006427ef0000f0a100103b8800d8
:1006800061c7a80051052000313b8800a10a200065
:10069000313b880061e7a800000000000000000076
:1006a0000000060013002400033b880000f0a100b6
:1006b0003220ef008001eb003108bb000398bb0043
:1006c0003108bb000398bb003108bb000398bb0096
:1006d0003108bb000398bb003108bb000398bb0086
:1006e0003108bb000398bb003108bb000398bb0076
:1006f0003108bb000398bb003108bb000398bb0066
:100700003108bb000398bb003108bb000398bb0055
:100710003108bb000398bb003108bb000398bb0045
:100720003108bb000398bb003108bb000398bb0035
:100730003108bb000398bb003108bb000398bb0025
:100740003108bb000398bb003108bb000398bb0015
:100750003108bb000398bb003108bb000398bb0005
:100760003108bb000398bb003108bb000398bb00f5
:100770003108bb000398bb003108bb000398bb00e5
:100780003108bb000398bb003108bb000398bb00d5
:100790003108bb000398bb003108bb000398bb00c5
:1007a0003108bb000398bb003108bb000398bb00b5
:1007b0003108bb000398bb0061c7a80051052000a9
:1007c000313b8800a10a2000313b880061e7a80086
:1007d000000000000000000000000600801f7800fc
:1007e00000702000400e8800ffff3700000000006e
:1007f000801f780000702000400e88000060fe001e
:10080000feff370000000000801f7800007020000d
:10081000400e88000060fe00feff37000000000070
:10082000801f780000702000400e88000060fe00ed
:10083000feff3700000000002829ec002a69ec00c8
:1008400088e0a90000400600809fbe0012c9bf00da
:10085000e24f50000e003200504b800080007800c4
:100860000000e800504b8800700c2000808f500082
:100870000700360000702000400e880040c0b30022
:1008800012e9b7001349e20001003a0013e9b7008a
:100890008960a9004f00be00004006003600f80045
:1008a000809fbe00829fbe00849fbe00869fbe00c8
:1008b0008560a900bfc8bf000018a3001700320060
:1008c00030158000e40f50000b00320003003e00a2
:1008d000e30f5000040032000d003700e50f500018
:1008e000090032000a00370000148000a049880087
:1008f000400020000700370000148000b049880045
:10090000500020000300370000148000c049880018
:1009100030002000301588000200370000148000ed
:1009200080498800101480006049880020148000ed
:100930007049880030148000904988001349e20013
:100940000300320040c0b30012e9b7002a003700ac
:10095000204380002e09e300080036001249e2001f
:100960000600320000702000400e880040c0b30036
:1009700012e9b70020c0b3000a00370030438000fe
:100980002c09e300090036001249e200070032009a
:1009900000702000400e880040c0b30012e9b7008c
:1009a00030c0b30013e9b70013003700c7010700d8
:1009b000bec8bf000038a30002003200304a8000e9
:1009c00030158800bfc8bf000018a3000300320024
:1009d0001249e2000100320061020700bfc8bf00f7
:1009e0000008a30003003a00bec8bf000068a300cf
:1009f000010032009b0007004f03be004f02be0003
:100a00004f01be004f00be003600f9000040060056
:100a10008540a90000400600809fbe008520a900f7
:100a200091108000c046800001487800c0468000d8
:100a3000d1c0b30090cf100003003a00c0e8a80076
:100a4000a08d2000010037000000e800c0468800ab
:100a50004f00be0000400600801f7800007020009c
:100a6000400e880040c0b30012e9b7001349e2000d
:100a700002003a0060c0b30013e9b7008c60a9001f
:100a80008460a9004f00780000400600809fbe00ef
:100a9000821f7800bec8bf000068a30016003200a5
:100aa000be68a800bec8bf000048a30012003a00fc
:100ab0005f69ef0080c0b3005ee9b700bec8bf0049
:100ac00041912000914078000028a30005003200e9
:100ad0000140e800e5cf500006003a001469ef003d
:100ae0000500370050c0b3000104e00001003200ef
:100af0000140e90014e9b700c0c8bf000058a300d6
:100b000006003200c0a8a900bec8a800be68a800a0
:100b100080c0b3005ee9b7005f69ef00bec8bf00e8
:100b20000078a30004003200bf08a800bee8a900b6
:100b300060c0b3005ee9b7005e49e2000100320028
:100b40005e69ed00bfc8bf000008a30003003a00c3
:100b5000404a8000600888000621ef004291200092
:100b6000124178008280fb00e28f500013003200b7
:100b700006003c00f06f20000100e0001100320090
:100b8000e18f50000900320019003700e48f500057
:100b90000f003200f09f2000e38f50000900340066
:100ba000e58f50000e00320011003700f02f2100b9
:100bb000a00e8800400020000c003700f08f2100bc
:100bc00008003700a00e8800500020000700370002
:100bd000f01f2200a00e8800314a88000400370070
:100be000f04f2200a00e880030002000304a88001c
:100bf000bfc8bf000008a30011003a00bec8bf0074
:100c00000068a30010003a00bec8bf000028a3007f
:100c1000050032000240e800e54f510006003a00ae
:100c20001469ef000800370050c0b3000204e00070
:100c3000010032000240e90014e9b7000200370069
:100c4000be68a8008cc0a90084c0a9004f0178002c
:100c50004f00be000040060084e0a9008ce0a9001f
:100c600000400600bec8bf000038a30015003200d7
:100c7000be68a900e828ef00ea68ef00bea8a90056
:100c8000be88a900acc9bf00ebe8b700bec8bf0072
:100c900041912000914078000028a3000300320019
:100ca0000108a30005003200020037000108a3007c
:100cb00002003a00c0c8a90003013700c0c8a8005c
:100cc00001013700ebc8bf00030032000040e9001b
:100cd000ebe8b700fc003700bec8bf000048a30027
:100ce000f9003a002c09d500ec08b4000000d1004e
:100cf00060478800a28e200012417800e19a20000f
:100d000091407800814f510001003a00bea8a80030
:100d1000c0c8bf000068a3000f003200814f51001f
:100d200005003100604780003009e3000200360012
:100d30000240e800eae8b700a18e20009140780068
:100d40000104e00014003200604780003009e30035
:100d500011003e000e003700814f510005003100a8
:100d6000604780003009e300020031000240e800e3
:100d7000eae8b700a18e2000914078000104e0006d
:100d800005003200604780003009e30002003900ae
:100d90000140e900eae8b700bec8bf000058a30060
:100da000c7003200c0c8bf000068a30005003200c1
:100db00060478000e808e30002003e003009e300dd
:100dc00008003600c0c8bf000068a300bc003a009d
:100dd00060478000e808e300b90039003009e3000b
:100de000b700390034098000bec8bf00419120001f
:100df000914078000028a300100032000180fb0021
:100e0000e20f50001d00320005003c000000e00031
:100e10001c003200e10f50001c0032001e003700a1
:100e2000e40f500019003200e30f500015003400a9
:100e3000e50f500011003200170037000180fb0061
:100e4000e20f50001100320005003c000000e000fd
:100e50000a003200e10f50000a0032000e00370095
:100e6000e40f500007003200e30f5000030034008d
:100e7000e50f50000500320007003700104a8000df
:100e800003003700004a800001003700204a80003c
:100e900000005200b04a880043912000934178003e
:100ea0000304e00004003a00204a800000005200e1
:100eb000604a88005229ef00b54a80000500d10041
:100ec000a14a800001005000d04a88004240a90099
:100ed00002003c0010002000d04a8800400620009c
:100ee0000028b800c24a8000811f78001100090064
:100ef0000280d800cf007800e04a8800d04380000c
:100f00005c09e30003003e00e04380005c09e3006d
:100f1000110031005e49e2000f003a00007020002d
:100f2000400e88008cc0a900bf08a900aa09e200f1
:100f300004003200bf28a800be68a800c068a9004d
:100f40006100370040c0b30012e9b70060c0b300d1
:100f500013e9b7005c003700bec8bf000028a3003b
:100f6000050032000340e800e5cf510006003a00da
:100f70001469ef000500370050c0b3000304e0001f
:100f8000010032000340e90014e9b700bec8bf0009
:100f90000068a3000b003a00d04a80006008880077
:100fa0000621ef0084c0a9008cc0a8000500d00075
:100fb000100888000021ef008460a9008c60a80060
:100fc000100037005f69ec005fc9bf00e14f5000bf
:100fd0000c0036008cc0a900bec8a900bf08a8003c
:100fe00030c0b30012e9b70060c0b3005ee9b700db
:100ff000d04a8000600888000621ef0084c0a90064
:101000008cc0a800bec8bf0041912000914078006c
:101010000028a300100032000180fb00e20f500006
:101020001d00320005003c000000e0001c00320002
:10103000e10f50001c0032001c003700e40f50008c
:1010400019003200e30f500015003400e50f500086
:1010500011003200150037000180fb00e20f500044
:101060001100320005003c000000e0000a003200e0
:10107000e10f50000a0032000c003700e40f50006e
:1010800007003200e30f500003003400e50f50006a
:101090000500320005003700144a880003003700bd
:1010a000044a880001003700244a8800b04a8000c2
:1010b000c04a8800be88a800ea68ef00bea8a90060
:1010c000804980004047880000000600889fbe00dd
:1010d0008a9fbe008c9fbe0012c9bf00e14f500026
:1010e00017003200bfc8bf000018a30014003a0068
:1010f000c0c8bf000018a30011003a0012c9bf0009
:10110000e24f500006003a0010002000bc09e30046
:1011100003003a00c0c8bf000028a3000800320046
:1011200012c9bf00e34f500009003a00704b800025
:10113000e20f5000020032000000e00004003a001c
:10114000ee28ef00f028ef00c088a80080003700ec
:10115000504a80002609b400714980008103500084
:10116000be28a9008043800000bdb90090478000e0
:1011700000805300a14380000184b900c0c8bf00b3
:101180000048a300010032006044b8000a02440095
:101190008b824c00f248800003498000820f52008d
:1011a000838f5a000c003400be28a8000200be0045
:1011b000e00f5100e08f590002003d00f01fb00029
:1011c0000180b000470bdd004900de000000730025
:1011d000c988de000f0037001049800021498000d7
:1011e000800f5200818f5a000e003d00be28a800db
:1011f000e00f5000e08f580002003d00f01fb000eb
:101200000180b000470edd004900de0000007600de
:10121000c988de00d61c200000034300ee28ef0042
:10122000f028ef00bec8bf000018a3003e003a003f
:101230009043800000b8b9007c4780008d47800053
:101240000c0040008d80480070478800814788006e
:101250000402400085824800820f5200838f5a00aa
:101260000c003400be28a8000200be00e00f5100b0
:10127000e08f590002003d00f01fb0000180b00077
:10128000c70edd004900de0000807600c988de0060
:10129000100037001249800023498000820f52005d
:1012a000838f5a0014003d00be28a8000200be0033
:1012b000e00f5100e08f590002003d00f01fb00028
:1012c0000180b000470add004900de000000720026
:1012d000c988de00d61c2000000343000a0051002c
:1012e0008b805900080050008980580070478800a2
:1012f000814788000c0037000400be00e00f520058
:10130000e08f5a0002003d00f01fb0000180b000e5
:10131000470bdd004900de0000007300c988de00d5
:10132000d61c2000000343000600e00001003d0041
:1013300006002000a039200006035000b60e8800e9
:10134000c60e8800d60e880097478800c088a9007e
:101350004f06be004f05be004f04be000000060051
:10136000bec8bf000038a30012003200be68a9004a
:10137000bf48a900bf68a900bf88a900f428ef00f2
:10138000f628ef00f828ef00fa68ef00fb68ef009e
:10139000fc68ef00fe28ef00c0c8bf000038a300c3
:1013a00002003a0040c0b30000e9b700c048a900fd
:1013b0005201370002902000124178000204e00040
:1013c00008003a001349e20006003a0040c0b300aa
:1013d00012e9b70010c0b30013e9b700bf28a90095
:1013e00046013700a3498000d1498000818f510018
:1013f00005003100fac8bf00b249e3000200360020
:101400000040e800fae8b700249b2000144278006e
:10141000fac8bf00844f500059003a00010078001c
:10142000f408e30056003900818f51005400390060
:1014300033098000bfc8bf000028a300c0003a00e5
:10144000fa68ef00bfc8bf000048a3001c003200cc
:1014500050c0b30014e9b700f04f2200a00e88007e
:10146000f0478000808051004209de008102d100f7
:1014700005824000644a88005229ef00bec8bf00c0
:101480000028a30004003a0020c0b30014e9b7000c
:10149000f08f2100c7003700c01c2000800f5200d1
:1014a0000b0136008180510002805000004a880004
:1014b00002805100104a880082804000f900370005
:1014c000bfc8bf000038a3002b00320020c0b3000b
:1014d00014e9b700f08f2100a00e8800f0478000cb
:1014e000808051004209de008102d1000582400067
:1014f000644a88005229ef00bec8bf000028a3003c
:101500001500320050c0b30014e9b700f04f2200bc
:10151000a00e8800c048a800c028a900bf28a900c4
:10152000454a8800414a800000b024000100500074
:10153000024e8000110009000280d800004388009c
:10154000be48a90084c0a8008cc0a800f04280005a
:1015500030498800db003700c01c2000800f52009b
:10156000db0036000180510082005000014a8800f3
:101570000200400037003700f3478800bf48a8004a
:10158000b3498000e1498000818f5100050031009e
:10159000fbc8bf00844f5000020031000040e8004b
:1015a000fbe8b700249b200014427800fbc8bf0072
:1015b000844f50004d003a0001007800f608e30027
:1015c0004a003900818f51004800390033098000fa
:1015d000bfc8bf000038a30059003a00fb68ef0005
:1015e000bfc8bf004200de0061006000e10f500094
:1015f0001b003a0014e9b700f02f2100a00e88006c
:10160000f0478000808051004209de008102d10055
:1016100005824000644a88005229ef00bec8bf001e
:101620000028a30004003a0040c0b30014e9b7004a
:10163000f01f22005f003700c01c2000800f520006
:10164000a30036000180510082004000014a88005a
:1016500002005000104a8800028051001f0037002d
:10166000bfc8bf000048a3001e00320040c0b30046
:1016700014e9b700f01f2200a00e8800f047800098
:10168000808051004209de008102d10005824000c5
:10169000644a88005229ef00bec8bf004200de0045
:1016a00061006000e10f500003003a0014e9b70048
:1016b000f02f210096ff3700c01c2000800f520041
:1016c0008300360002805100004a880001805100ea
:1016d00082005000114a880002004000204a880021
:1016e00071003700f3478800bf68a800c349800035
:1016f000f1498000818f510005003100fcc8bf0016
:10170000844f5000020031000040e800fce8b700c0
:10171000b2c9bf00fc48e30072003a000100780043
:10172000f808e3006f003900818f51006d00390027
:1017300033098000bfc8bf000048a3000700320083
:10174000c068a8000204e000020032000240e90084
:1017500000e9b700be68a80068003700fc68ef0029
:10176000bfc8bf000038a3003100320036c0b3004c
:101770000003fd0014e9b7000003fd00f09f200006
:10178000a00e8800f0478000808051004209de00f2
:101790008102d10005824000644a88005229ef008e
:1017a000bec8bf000028a30010003a001469ef0073
:1017b000f06f2000a00e8800c048a800c028a90033
:1017c000bf28a900454a8800414a800000b0240093
:1017d00001005000024e8000110009000280d80074
:1017e00000438800be48a80056ff3700c01c2000f8
:1017f000800f52003600360002805100004a8800f7
:101800000180510082004000114a8800020050000f
:10181000204a8800c54a8800bf28a900bee8a80061
:101820000003fd0012e9b7000003fd0023003700ac
:10183000bfc8bf000028a300280032001469ef00d1
:10184000f06f2000a00e8800f047800080805100db
:101850004209de008102d10005824000644a88000e
:101860005229ef00bec8bf000028a30004003200c8
:1018700030c0b30014e9b700f09f200024ff370008
:10188000c01c2000800f52001100360081805100e2
:1018900002804000004a880002805100104a8800ff
:1018a00082805000214a8800c54a8800bf28a900cc
:1018b000bee8a80030c0b30012e9b70084c0a80099
:1018c0008cc0a80070772000400e88000b00370005
:1018d000be68a800c028a80008003700f3478800a9
:1018e000bf88a800a0498000a0478800b0498000b8
:1018f000b0478800c0498000c0478800000006004b
:10190000881f78001269ef0069020700760207005d
:1019100097020700a4020700a9020700c8020700f7
:101920008960a9008140a8008120a8008100a8004a
:1019300000c7b300a960b70090e0a8009160a800bc
:101940008d60a800bf28a800bf28a90008c0b30068
:101950000004fd0061e9b7000004fd006403070016
:101960000844e800c0c2b300804f5400f8ff3600be
:101970006169ef000060fe0007000700bc0207007d
:1019800012c9bf00e14f5000faff3a0007050700f7
:10199000f8ff370000000000f0c9b3002a49e30057
:1019a0004d0036002a69ef00eb0407005e49e200b3
:1019b00002003200d04b80000e0037000500fc0012
:1019c000f04c80004c09bc000200be0083062000e1
:1019d000830f5000e08f580002003e004ea9ef0038
:1019e000050037000001be0000802700910620009e
:1019f000f9fa0700704a880012c9bf00e34f50008f
:101a0000010032005229ef001349e20018003a00a9
:101a1000404c80004e09e30009003600bfc8bf00fb
:101a20000008a3000600320000702000400e88006d
:101a300040c0b30012e9b70050c0b30013e9b700cb
:101a4000904a80008609e300070031000070200002
:101a5000400e880040c0b30012e9b70070c0b30068
:101a600013e9b700020037000000e800904a880040
:101a7000714a8000104c8000808f500002003100bd
:101a8000700020000a003700008050008409bc006c
:101a90000200be00624a800003002000defa070058
:101aa00002f22b0023002000e1fa0700670040004b
:101ab000a04a8800bfc8bf000008a3000100320090
:101ac00007000700d700070012c9bf00e24f50000f
:101ad00001003a000e0107000000060000000600a9
:101ae000889fbe008a1f780012c9bf00e34f5000d4
:101af00002003a005e49e200030032000229ef00d2
:101b00000429ef00c4003700754b8000e18f5200bc
:101b1000370032000500e00028003200e28f52005a
:101b200003003200e38f520015003200340037000a
:101b30000229ef000429ef00ca01a800b046800086
:101b4000b24d8000110009000280d8008000fd0025
:101b5000a0392000808f500002003600d621ef000f
:101b60000200370001005000b00e8800b40e800063
:101b7000c40e8800b50e8000d50e8800a300370083
:101b80000229ef000429ef00b0468000c24d80001a
:101b9000110009000280d8008000fd00504a80003a
:101ba0006408b500808f5000020039003049880079
:101bb000990037003149880097003700f0488000cd
:101bc00001498000450cdd00cb04de00890474006f
:101bd0004504dd001049800021498000450bdd00ef
:101be000cb03de00870373004503dd0004003700ec
:101bf000b8488000c9488000d6488000e748800087
:101c0000b0468000ba09bc00824a8800be08a9001c
:101c1000704a8000000551006043800000d1b90087
:101c2000880f5100898f59000a003400be08a800af
:101c30000800be00e00f5400e08f5c0011003d0082
:101c4000f0ff2300010020000800400089804800c8
:101c50000c003700860f5100878f590013003d009c
:101c6000be08a8000600be00e00f5300e08f5b0036
:101c700004003d00f0ff23000100200006004000aa
:101c800087804800420add004e00de00000072003e
:101c9000ce88de00000278000500e00001003a0076
:101ca000d41cb0000229ef000429ef00bec8bf0019
:101cb0000008a3004a003a007043800000d0b90039
:101cc00014488000254880000400400085804800ba
:101cd00010488800214888000000410081804900a8
:101ce000880f5000898f580014003400be08a800e7
:101cf0000800be00e00f5400e08f5c0004003d00cf
:101d0000f0ff230001002000080040008980480007
:101d1000c20add004e00de0000807200ce88de00c8
:101d2000000278006e09e20001003a00d41cb00005
:101d30000200540083805c0016003700860f5000bc
:101d4000878f580016003d00be08a8000600be00a0
:101d5000e00f5300e08f5b0004003d00f0ff230024
:101d6000010020000600400087804800420add0094
:101d70004e00de0000007200ce88de000002780017
:101d80006e09e20001003a00d41cb00002005300ca
:101d900083805b00104888002148880010003700cd
:101da0000001be00e00f5000e08f580004003d002d
:101db000f0ff230001002000020140008381480061
:101dc000c21add004e10de0000807200ce98de00e8
:101dd000000278006e09e20001003a00d41cb00055
:101de0006e09e2000b003a000400e00001003d0033
:101df00004002000ca01a800a039200004025000fd
:101e0000b40e8800c40e8800d40e8800ca01a90050
:101e100001003700344988004f0578004f04be00a8
:101e20000000060012c9bf00e34f5000030032005b
:101e300012c9bf00e24f500010003a008cc0bf0032
:101e40000078a300010032008ce0a900504380001c
:101e5000218d200011021000b043800000a1b900c4
:101e60000600200097002000860f5100878f590040
:101e700002003c00ea0f420003003d000629ef008b
:101e80000829ef0000000600c043800000a0b90050
:101e900034488000454880000400400085804800a8
:101ea0003048880041488800000041008180490096
:101eb000860f5000878f5800030034000200530043
:101ec00083805b0005003700e00f5000e08f580072
:101ed00005003c0060001100e080190030488800d7
:101ee0004148880000000600c70add004900de0006
:101ef00000807200c988de00700888000a21ef00a7
:101f000084e0a9008ce0a8000000060000000600a4
:101f1000c0c8bf000018a3000a0032004200f80049
:101f200042e0a80042c0a80042a0a900bf28a80023
:101f3000be68a800c028a9004200f900a04d80009a
:101f400007003700bfc8bf000018a300060032001a
:101f5000504880000000e000030032000000e9006b
:101f60005048880000000600bf28a900c0c8bf0074
:101f70000028a30017003200f0af24004809e30056
:101f800003003e00004380004829b4000000060022
:101f90004200f80042e0a80042c0a80042a0a90008
:101fa000c048a900614b8000e1c06000c208dd00ac
:101fb000bec8bf000024a10001407000bee8b70009
:101fc0008cc0a900bfe8a900bfa8a900bfc8a9008c
:101fd0004200f900bfc8bf000078a3004f003200e4
:101fe00033468000031ab800e24280001100090065
:101ff00042aad800b14280000102b80011000900d5
:1020000042aad800a142800080804000714688002a
:102010007046800050468000009ab8001100090008
:1020200042aad80060468800614680008085200072
:1020300090804000bc09e20008003200a039200076
:1020400081005000ca01a800b10e8800c10e8800ae
:10205000d10e8800ca01a90001003700314988006b
:10206000704680009e09bc000080220031022000e2
:1020700059f90700e10f4000e08f580002003600d8
:1020800048a9ef0001003700404a8800114e800047
:102090000100e00008003a00104380004809e30016
:1020a00005003e00bec8bf000068a30002003a0061
:1020b000c0a8a8005f69ef00204680004809e3003f
:1020c00016003e004200f80042e0a80042c0a8000e
:1020d00042a0a900bfe8a90000702000400e8800bf
:1020e0008cc0a900e18f500006003a00bf28a8006c
:1020f000be68a800c068a90030c0b30012e9b700ec
:102100000400370040c0b30012e9b70010c0b300ac
:1021100013e9b7004200f90000000600bfc8bf0085
:102120000058a3001b003a00bfc8bf000068a3000e
:1021300018003a00bfc8bf000078a30015003a009d
:10214000c628ef00bfa8a800bc09e2000b003200bf
:10215000ca01a800a039200081428000010050007f
:10216000b00e8800b00e8000c00e8800b00e800057
:10217000d00e8800ca01a90002003700804280000a
:1021800030498800f06f2000a00e88008007b00062
:10219000400e8800804b8000c608e3001c00390018
:1021a000bfc8bf000058a30019003200c628ef00c6
:1021b000bfa8a900bfc8a800bc09e2000b003200fc
:1021c000ca01a800a03920009142800001005000ff
:1021d000b00e8800b00e8000c00e8800b00e8000e7
:1021e000d00e8800ca01a90002003700904280008a
:1021f00030498800bec8bf000028a300020032009a
:10220000f02f210001003700f04f2200a00e8800bf
:10221000904b8000c608e30022003600bfc8bf0014
:102220000068a3001f003200bfc8a900bfe8a800d3
:10223000c628ef00bc09e2000b003200ca01a8006a
:10224000a0392000c142800001005000b00e88007b
:10225000b00e8000c00e8800b00e8000d00e880046
:10226000ca01a90002003700c0428000304988003e
:10227000c209e20005003a0010438000c208e300f2
:1022800002003e00c0a8a8005f69ef0030c0b300a4
:1022900014e9b70010468000404a880084c0a800b6
:1022a0008cc0a800c628ec00000006000000060054
:1022b000c822ef00ce22ef00d422ef00da22ef0096
:1022c00000702000400e8800c6a2ef00000026002b
:1022d0006016880030002000901688000010200052
:1022e000c016880000000600881f78000000280043
:1022f000000e8800d01c2000200e8800300e8800c0
:1023000008702000480e8800ca21ef00cc21ef00a1
:10231000f0f02f00800e8800f0ff2300a00e880050
:10232000a0392000b00e8800c00e8800d00e8800b2
:10233000400020002e0007008000780008046000a4
:102340004844de00e40f540005003200f00f2f0077
:102350008080600001a0a00040002000290007004c
:1023600088e0a9008960a9004f04780000000600f9
:10237000f0062000001588000020200010158800bd
:10238000300020002015880030158800000028004b
:102390004015880000022700501588008560a900bc
:1023a000a1e2a800000006000091200010098800aa
:1023b0002421ef0028a1ef008900a90000000600f9
:1023c00001022800210888000080eb001008880026
:1023d0008460a900810888006008880084c0a90082
:1023e000910888007008880084e0a90000000600b9
:1023f000820f2000920188001000ba0000008000c7
:1024000000000600820f2000920188008200240054
:10241000023b88000108bb0061c7a80052052000ec
:10242000323b8800a20a2000323b880061e7a80006
:1024300061c7bf000078a300fdff3a00000006005e
:1024400000002800601088000e22ef00f00120003c
:10245000a01088008d20a800a08d2000c046880014
:10246000c0e8a900c108a9000f42a80000000600aa
:10247000f06320002809e3001a003600604980005c
:10248000d208b4000000d100904688009049800036
:10249000d608b4000000d100b0468800704a800021
:1024a000d008b4000000d100804688007049800048
:1024b000d408b4000000d100a04688000b0007003b
:1024c0002829ef0012c9bf00e44f500001003a0074
:1024d000f503070012c9bf00e34f500001003a00a6
:1024e000d20307000000060000000600c6c9bf00b6
:1024f000e14f500001003a0012e9b7000004e0008b
:10250000020032000040e900c6e9b700c7c9bf00b9
:102510000038a30005003a0060c9bf000038a300de
:102520000200320010c9a8000100370010c9a9003c
:1025300060c9bf00c7e9b70012c9bf000080fb0037
:10254000e20f50002e00320005003c000000e000c9
:1025500065003200e10f5000060032000000060066
:10256000e30f500031003200e40f5000460032000b
:102570000000060010c9ab001d0032004200f80048
:1025800042e0a80042c0a80042a0a900c028a800bc
:10259000c048a900c068a900bfa8a900bfc8a90079
:1025a000bfe8a900bf08a900bf28a900bec8a900ac
:1025b000604b8000614060004200dd00e18b200044
:1025c000914078000124a10080c070008000fd00cf
:1025d000bee8b7008000fd004200f90020c0b30053
:1025e00012e9b7001029a90010e9a9006a29ef0033
:1025f0001069ab003c0032001029a8000000060062
:1026000010c9ab003800320000702000400e880076
:10261000bf08a900bf28a9008c60a9008cc0a90030
:1026200010c0b30012e9b700000006008248800025
:102630000268a3000800320000702000400e8800ed
:10264000bf08a900bf28a9008c60a9008cc0a90000
:1026500010c0b30012e9b7000238a3002200320014
:10266000000020000278a30001003a0010002000c2
:10267000c700dd00020078000070a10001007000ba
:102680008048880000000600814880000168a3009f
:10269000120032001369ef004200f80042e0a80087
:1026a00042c0a80042a0a900bfa8a900bfc8a900b5
:1026b000bfe8a900bf08a900bec8a900bf28a9009b
:1026c0008c60a9008cc0a9004200f900803e200067
:1026d000604a880010c0b30012e9b7000138a300b7
:1026e000010032001029a8000000060000000600ca
:1026f000889fbe008a9fbe008c9fbe0061c9bf003c
:102700000080fb0001002000c2022000820f500068
:10271000e08f58008c013e00006001002c00370063
:102720008901370088013700870137003000370002
:1027300040003700900037008f0037004e00370010
:1027400061003700740037007f0137007e013700d9
:102750007d0137007c01370009013700be003700da
:1027600070003700720037007400370076003700c1
:102770007800370002013700790037007b0037000e
:102780007d003700b4003700b3003700fc0037008d
:10279000fb003700100137006b0137006a0137007a
:1027a00069013700140137006701370066013700ff
:1027b00065013700640137006301370019013700f4
:1027c00056013700600137005f0137006a003700ab
:1027d000614b8000e1c06000c208dd00bec8bf00e0
:1027e0000024a10001407000bee8b7005601370088
:1027f000a14b8000bc09e20003003200a039200098
:102800000008b80006003700504a80006408b50090
:102810006102b8006109b8000400be007ef707003d
:1028200042062000030020006bf70700804288006a
:1028300045013700bc4b8000bc09e20003003200b8
:10284000a03920000060b80006003700504a800020
:102850006408b5006102b8006161b8000400be0000
:102860006df7070042062000030020005af707001a
:102870009042880034013700d8428000e94b800044
:10288000bc09e20003003200a03920000048b80073
:1028900006003700504a80006408b5006102b800a5
:1028a0006149b8000400be005bf707004206200043
:1028b0000300200048f70700c0428800c0428000a3
:1028c0000000540013013700fd4b8000c842800017
:1028d000bc09e20003003200a03920000068b80003
:1028e00006003700504a80006408b5006102b80055
:1028f0006169b8000400be0047f7070042062000e7
:102900000300200034f70700d04288000800780058
:102910005a08b500ff003700004c8000e0428800f4
:1029200009013700724c800082438800060137009d
:10293000804c80009043880003013700924c800057
:10294000a243880000013700a04c8000604388004b
:10295000fd003700b24c800072438800fa00370057
:10296000d04c8000b0438800f7003700e24c800074
:10297000c2438800f4003700c94b8000f84c800047
:102980000848b800420120000300200012f70700a9
:102990000001be0000202c00110020000ef70700ef
:1029a000e10f4000e08f5800080036000081eb0086
:1029b000124688000241b800008022003102200047
:1029c00005f70700a0428800020037001046880083
:1029d000a9428800da4b80000850b800420120006c
:1029e00003002000fcf607000001be0000202c00c0
:1029f00011002000f8f60700e10f4000e08f5800ba
:102a000002003600c4a8ef0001003700204688000d
:102a100009005500b0428800204e80000800b80030
:102a20004201200003002000ebf607000001be0079
:102a300000202c0011002000e7f60700e10f400005
:102a4000e08f58000200360062a8ef00be00370099
:102a500010438800bc00370070498000504a88004d
:102a6000614c8000e00c2000000ab800024d80009c
:102a7000030020000400be00e7f607000002be00cd
:102a8000104d80006a00b8006101b8000400be006b
:102a9000d1f6070072498000000041002043880001
:102aa00002065000f00520000060b8004206200039
:102ab00003002000def607004e09dd00c200de0044
:102ac000810071004e00dd00b0488800c1488800d8
:102ad00060001000e0801800d0488800e1488800bd
:102ae000bc09e20024003a006165b800a04b8000f8
:102af000010020000a01be00c7f6070042062000c0
:102b000003002000b4f6070080428800b04b80002c
:102b1000010020000a01be00bff6070042062000a7
:102b200003002000acf6070090428800e04b8000d4
:102b3000010020000a01be00b7f60700420620008f
:102b400003002000a4f607000004be00c042880075
:102b5000f04b8000010020000a01be00aef6070025
:102b600042062000030020009bf60700d0428800a8
:102b700008005000504688006165b8006a003700c0
:102b8000ec0c2000504c80000c02b8002a4d800054
:102b90000b0020000a01be000400be009ef60700e4
:102ba000384d80006a44b8000801be008af607006c
:102bb00030438800c04c80000c02b8000a01be00ff
:102bc0000400be0094f607000801be0082f607006c
:102bd000504388005c003700414d800040062000d3
:102be00001004000d0438800400620000100500052
:102bf000e043880054003700824d8000409320005d
:102c000090004100d149880060932000900041006d
:102c1000e1498800020078003809b400f0498800d2
:102c200049003700fd4b8000e94b8000bc4b800021
:102c3000a14b8000bc09e20015003200a839200039
:102c40000808b800420620000300200062f60700d2
:102c5000804288000860b80042062000030020007f
:102c60005df60700904288000848b8004206200040
:102c70000300200058f60700c0428800086cb80026
:102c800042062000030020000800be001d0037009f
:102c9000504a80006408b5006105b8006108b800ba
:102ca0000a01be005cf60700420620000300200077
:102cb00049f60700804288006160b8000a01be0042
:102cc00055f60700420620000300200042f60700e8
:102cd000904288006148b8000a01be004ef6070025
:102ce00042062000030020003bf60700c042880097
:102cf0006168b8000a01be0047f6070042062000de
:102d00000300200034f60700d0428800c042800053
:102d10005a08b500504688000b003700504a800022
:102d20006408b5006105b800f04d80000100200086
:102d30000a01be0038f6070042062000030020000a
:102d400025f60700f04288004f06be004f05be0082
:102d50004f04be0000000600cfc2bf004600de00e8
:102d6000610060000004a2004300dd00e19020004b
:102d700091407800814f5000050032008000fd0036
:102d80000de9b7008000fd000ee9b7000000060065
:102d90000d49e300020032000de9b7000000060013
:102da00060e9b7000000060000000600c1c8bf00cf
:102db0000048a30001003200c188a900c0c8bf00bc
:102dc0000078a3002200320023000700c1c8bf0022
:102dd0000028a30001003a004e000700c1c8bf0050
:102de0000008a3000f003200b6000700e2c8bf00d1
:102df0000080fb006400b80082fb290060007900bd
:102e000020478800bf000700a8000700e2c8bf00f5
:102e10000001d000e21fb200c1962000628078005d
:102e20000b010700c1c8bf000018a3000100320059
:102e3000af000700a08d2000c0468800a100070059
:102e4000c108a900c0e8a900c128a900c148a9007b
:102e50000000060000000600f0c3b300da48e300fb
:102e60002a003a00dbc8bf008080fb00c0042000bd
:102e7000808f50001e0032000f003c00690050009f
:102e8000808f50001b00320007003c00640050009f
:102e9000808f50001400320063004000808f50008b
:102ea000160032001800370060042000808f5000a8
:102eb000140032001400370020052000808f5000dd
:102ec0000f00320004003c0065005000808f50006d
:102ed000060032000c00370030052000808f5000c3
:102ee0000500320008003700940037002801370041
:102ef0002e013700340137003a0137004001370016
:102f00001e01370018013700790007000000060095
:102f100000000600e268ef00c108a900a08d2000b3
:102f2000c0468800238e2000934178000380fb0078
:102f30006400b800a2fb29006000790020478800e7
:102f4000c246800020478000b040780020478800bb
:102f500032407800c2468800814f500007003a0096
:102f60009240780000c2b30080cf500004003200cd
:102f7000edcf500002003200f1ff3700c168a80019
:102f8000c1c8bf000038a30006003a00c146800057
:102f900000c2b300914f10000f003200c108a8001a
:102fa00008003700c168a9008340e8008000fd00e8
:102fb000e2e8b7008000fd00c0c2b30080cf50003f
:102fc000d6ff3600d0c2b300e248e30004003a0066
:102fd000c128a8000000060004000700f9ff370020
:102fe000c108a80000000600000006000600fa0064
:102ff000881f7800e880570000282a000500090093
:10300000b0587800c146800031407800c146880041
:10301000ed4f5000fbff3a008100e900c1468800f7
:1030200052c0b30000c2b300914f10000a0032003a
:103030000280fb00c1468000a1417800680050007a
:1030400003f07f00c14688000241e90000c2b300de
:10305000914f1000f6ff3a00e2c8bf000004d00014
:10306000e81fb200c39620000304440068805700a4
:10307000a3f40700000c780008c0b3000004fd00b2
:1030800061e9b7000004fd0099fd07000844e8006d
:10309000c0c2b300804f5400f8ff36006169ef00f2
:1030a0004f0478000080fa00000006000fc2bf0045
:1030b0000018a300fdff3a00900020008010880057
:1030c000000006000fc2bf000018a300fdff3a0079
:1030d000d0002000801088000fc2bf000018a3009d
:1030e000fdff3a00a00020008010880000000600cc
:1030f00020162a002047880002000700c128a900e6
:1031000000000600204780001004e00009003200a3
:103110000fc2bf000018a300fdff3a002047800047
:10312000b080fb0081108800204788001004e00078
:10313000f7ff3a000000060000000600e268ef001a
:10314000e2c8bf000080fb006400b800e2142a005f
:103150006000790020478800eaff0700e2c8bf004e
:103160000080fb006400b80002152a0060007900ae
:1031700020478800e3ff0700d2ff0700e248ec0089
:10318000e2e8b700e44f5000edff3600c148a80068
:1031900000000600889fbe008044780008c0b3008d
:1031a000e268ef000881fb000980fb006e00b800b8
:1031b0000001410020bc290000014100e2c8bf001d
:1031c000924f500019003a000080fb006400b800e4
:1031d00082fb29006000790020478800c9ff0700b2
:1031e000b2ff0700b1ff0700e2c8bf000080fb008c
:1031f0006400b800a2fb2900600079002047880025
:10320000c0ff0700a9ff0700a8ff0700e2c8bf0032
:103210000001d000e21fb200c19620006280780059
:103220000b000700a7ff07000844e800e248ec0095
:1032300080407800e2e8b700c0c2b30080cf500001
:10324000d8ff3600c148a8004f04be0000000600a9
:103250008001780002712200110009000280d8006c
:10326000004278000004e000030032000080fb0010
:103270000280b900808151000fc2bf000018a30076
:10328000fdff3a000480fb000003b00080108800be
:10329000823e2000110009008281d800004278009f
:1032a0000004e000030032000080fb000280b9004f
:1032b000808151000fc2bf000018a300fdff3a003b
:1032c0000480fb000003b00080108800420620004c
:1032d000110009008281d800004278000004e0005b
:1032e000030032000080fb000280b90080815100a1
:1032f0000fc2bf000018a300fdff3a000480fb00ce
:103300000003b00080108800a20020001100090016
:103310008281d8008000fd00014278000104e000b5
:10332000030032000180fb006a00b9008081510077
:103330000fc2bf000018a300fdff3a000480fb008d
:103340000003b000801088000fc2bf000018a30067
:10335000fdff3a0001c3b30001c041000000fb00c3
:10336000801088000000060000242a002047880002
:1033700064ff0700c148a80000000600c01f2a0023
:10338000204788005fff0700c148a8000000060032
:1033900030192a00204788005aff07001f00070045
:1033a00000c0b3007bff070000000600701a2a006f
:1033b0002047880053ff07001800070040c0b300f3
:1033c00074ff070000000600601e2a0020478800e6
:1033d0004cff07001100070030c0b3006dff07006d
:1033e00000000600b01b2a002047880045ff0700a8
:1033f0000a00070020c0b30066ff070000000600b7
:10340000201d2a00204788003eff07000300070018
:1034100010c0b3005fff070000000600c0062a00ce
:103420002047880037ff070000000600889fbe0085
:10343000b80e80000804d100401c200010041400c5
:10344000400620000044b800220e8000801f780053
:10345000110009000284d800000478004f007800b1
:1034600000262a002047880026ff070080468000ab
:1034700077ff07000dff070000272a00204788007c
:1034800020ff07000800780071ff07000fc2bf008f
:103490000018a300fdff3a00d00020008010880033
:1034a0004f04be0000000600c1c8bf000048a300d2
:1034b0000e003a00c188a80002ff070013c9bf0030
:1034c0000080fb000000d00021bb29006080780054
:1034d000204788000bff0700f4fe070090dd840002
:1034e0002047880007ff0700f6fe070000000600df
:0434f00000000600d2
:020000040000fa
:1034f40050080000c2000000000000001209000093
:103504000601000002000000000000000000d400da
:10351400300000002ccfff00009a030000b02f0001
:10352400fdff00000000000000000000000000009b
:103534000000000000000000000000000000000087
:103544000000000000000000000000000000000077
:103554000018000002e803000000f400010000006d
:103564000000010000010000010000000000000054
:10357400ff00000000010000010001000000000045
:10358400010000000032000032003200003200006e
:103594006400d000073400004400640000dc05002f
:1035a4001900640000ac0d00f40164000084030001
:1035b4006400000000c409002800ea00011027008c
:1035c40088130800006400001b0264000019050051
:1035d4005a0001000001000002000c000006000077
:1035e40005000100000800000300010000140000b1
:1035f400010000000090010014ff01000000000021
:1036040000003000313233003435360037383900a9
:103614006162630064656600676869006a6b6c00d8
:103624006d6e6f0070717200737475007677780038
:10363400797a00000000210015110e000d0c0b001a
:103644000b0a0a000909090009090800080808000a
:10365400080808000707070007070700070707000f
:0c3664000707070007000000000000003e
:020000040000fa
:0200000401f009
:04000000e6ff000017
:020000040000fa
:1010000036120a000000000024750000453300007d
:101010001c00030100000000f4320000000000008a
:1010200000000000000100000001000000000000be
:101030002e7265736574000000000000000000005f
:1010400008000000c00100000000000000000000d7
:1010500000000000200000102e746578740000006d
:101060000001000000010000f4320000c80100008f
:10107000000000005c4a000000005905200000103c
:101080002e64696e697400007a1a00007a1a0000f2
:101090007c010000bc3400000000000000000000e3
:020000040000fa
:103670005072000065730000732000005332000098
:10368000207400006f200000636f00006e74000063
:10369000696e000075650000202e00002e2e0000cf
:1036a00000460000616900006c65000064200000b5
:1036b000746f0000205300007461000072740000f9
:1036c000004f000076650000722000004375000086
:1036d00072720000656e0000740000004f760000fa
:1036e00065720000205600006f6c000074610000dd
:1036f0006765000000480000617200006477000008
:1037000061720000652000005472000069700000c2
:10371000004f00007665000072200000537000002a
:103720006565000064000000536500006e730000d2
:103730006f7200006c65000073730000204c000085
:103740006f730000740000004d6f0000746f000084
:103750007220000053740000616c00006c65000072
:1037600064000000389b0000519b0000619b00003a
:103770006e9b00007b9b0000899b0000949b0000d7
:10378000a49b000000190000202900003232000034
:103790003232000032320000323200003232000099
:1037a0001a1b00001c1d0000212200002324000021
:1037b00025260000272a0000323200000203000004
:1037c0000405000006070000080900000a1e0000aa
:1037d0001f2800002b2c0000010b00000c11000022
:1037e0001213000014150000161700001832000014
:1037f000323200000d0e00000f10000032320000c7
:103800003232000032320000323200003232000028
:10381000444900005245000043540000494f000055
:103820004e2000002020000020200000202000006a
:103830000044000044000000434f00004e540000cc
:10384000524f00004c2000004d4f00004445000046
:103850002020000020200000004300004d00000058
:103860004c6f0000636b0000205000006f7300007d
:103870002e31000020540000696d0000652000001a
:10388000004c000050310000540000004c6f00005c
:10389000636b0000205000006f7300002e320000a8
:1038a00020200000546900006d650000004c0000fd
:1038b00050320000540000004c6f0000636b0000a9
:1038c000205000006f7300002e31000020440000e3
:1038d000656d00002e200000004c000050310000fb
:1038e000440000004c6f0000636b0000205000009b
:1038f0006f7300002e32000020440000656d000050
:103900002e200000004c0000503200004400000057
:10391000526100006d7000002053000074610000cf
:1039200072740000205300007065000065640000a0
:10393000005200005353000000520000616d00006f
:1039400070200000456e00006420000053700000ed
:103950006565000064200000200000005245000062
:1039600053000000526100006d7000002053000001
:10397000746100007274000020440000656d000056
:103980002e200000005200005344000000520000ae
:10399000616d000070200000456e00006420000092
:1039a000446500006d2e0000202000002000000073
:1039b0005245000044000000526100006d7000009c
:1039c000204400007572000061740000696f0000ff
:1039d0006e20000020200000005200004400000083
:1039e0005068000061730000652000004164000021
:1039f000762e0000204500006e610000626c000021
:103a0000652000005370000064200000005000009a
:103a10004145000053000000506800006173000041
:103a20006520000041640000762e00002053000055
:103a30006c6f0000706500000050000041530000f2
:103a400000530000746100006c6c00002054000002
:103a5000696d0000652000004c6900006d69000080
:103a600074000000535400004c0000004f7600002a
:103a7000657200002053000070650000656400005e
:103a8000204c0000696d000069740000004f0000c8
:103a9000534c0000004f00007665000072200000cb
:103aa000566f00006c740000732000004c69000029
:103ab0006d690000740000004f5600004c000000cb
:103ac0004f76000065720000204300007572000010
:103ad000726500006e740000204c0000696d0000eb
:103ae000004f0000434c00000043000075720000ce
:103af000726500006e740000205000002047000036
:103b0000616900006e20000020000000434b0000af
:103b1000500000004375000072720000656e0000e6
:103b2000742000004920000047610000696e000019
:103b300020200000004300004b490000004300002b
:103b400075720000726500006e7400002044000071
:103b500020470000616900006e2000002000000086
:103b6000434b0000440000005370000065650000f6
:103b7000642000005020000047610000696e0000d2
:103b80002020000020200000005300004b500000c7
:103b900000530000706500006564000020490000cb
:103ba00020470000616900006e2000002020000016
:103bb00020000000534b000049000000566f000039
:103bc0006c7400006167000065200000446500001f
:103bd0006d6100006e6400002020000000560000af
:103be00044000000566f00006c7400007320000059
:103bf0005020000047610000696e00002020000096
:103c000020200000005600004b500000005600002d
:103c10006f6c000074730000204900002047000012
:103c2000616900006e2000002020000020000000dc
:103c3000564b0000490000004e6f00002e2000008f
:103c40004d6f0000746f000072200000506f000084
:103c50006c65000073200000004d00005000000063
:103c60004375000072720000656e00007420000051
:103c700053630000616c00006520000058200000c4
:103c8000004300005358000000430000757200001c
:103c9000726500006e740000205300006361000034
:103ca0006c650000202f000020000000435300003e
:103cb00044000000566f00006c7400007320000088
:103cc00053630000616c0000652000005820000074
:103cd000202000000056000053580000005600004d
:103ce0006f6c0000747300002053000063610000db
:103cf0006c650000202f0000202000002000000044
:103d00005653000044000000546f00006c65000032
:103d1000726100006e6300006520000043680000cf
:103d2000656300006b2000000054000043000000a9
:103d300041750000746f000020520000652d0000e6
:103d40006163000071750000697200006520000069
:103d50000041000052410000004200006c61000080
:103d60006e6b0000696e000067200000436f00006a
:103d7000756e000074200000200000004243000027
:103d8000005a0000657200006f20000058200000fb
:103d90004c650000766500006c200000546800004f
:103da000640000005a5800004c000000416300000d
:103db0007175000069720000652000005468000001
:103dc00072650000736800006c6400000041000030
:103dd000540000004163000071750000697200002a
:103de000652000004c650000766500006c20000036
:103df00054640000004100004c000000526f0000bd
:103e000074610000746900006f6e000020540000af
:103e1000696d0000656f00007574000000520000bd
:103e200054000000506f0000742000002f2000009c
:103e3000666f000072200000447500007479000075
:103e4000202000000050000044440000005000000a
:103e50006f740000202f0000206600006f720000c9
:103e60002043000075720000726e000074000000b4
:103e70005044000043000000506f00007420000018
:103e800058200000666f0000722000005370000090
:103e900065650000642000000050000058530000d9
:103ea000005300007461000072740000696e00002d
:103eb00067200000436f00006e740000726f000006
:103ec0006c0000005343000000570000696e0000c2
:103ed000646d0000696c00006c6900006e67000092
:103ee00020440000656d00002e00000057440000d3
:103ef00000420000726100006b6900006e67000004
:103f000020520000616d000070200000542000006d
:103f100020000000425200005400000041630000f5
:103f20007175000069720000652000004d65000099
:103f3000746800006f640000202000000041000051
:103f40004d0000005a650000726f0000582000000c
:103f5000456e0000616200006c65000020530000a7
:103f600070640000005a0000584500005300000033
:103f7000089c0000199c00001c9c00002d9c000067
:103f8000309c0000419c0000469c0000579c0000b3
:103f90005c9c00006d9c0000729c0000839c0000f3
:103fa000889c0000999c00009d9c0000ae9c000035
:103fb000b29c0000c39c0000c79c0000d89c00007d
:103fc000dc9c0000ed9c0000f09c0000079d0000c0
:103fd0000c9d00001d9d0000219d0000329d0000f1
:103fe000369d0000479d00004b9d00005c9d000039
:103ff000609d0000719d0000759d0000869d000081
:104000008a9d00009b9d00009f9d0000b09d0000c8
:10401000b49d0000c59d0000c99d0000da9d000010
:10402000de9d0000ef9d0000f29d0000039e000059
:10403000079e0000189e00001c9e00002d9e0000a0
:10404000309e0000419e0000459e0000569e0000ec
:104050005a9e00006b9e00006f9e0000809e000034
:10406000849e0000959e0000989e0000a99e00007e
:10407000ad9e0000be9e0000c19e0000d29e0000ca
:10408000d69e0000e79e0000ea9e0000fb9e000016
:10409000fe9e00000f9f0000129f0000239f000063
:1040a000279f0000389f00003c9f00004d9f0000ac
:1040b000519f0000629f0000659f0000769f0000f6
:1040c000799f00008a9f00008e9f00009f9f000044
:1040d000a29f0000b39f00000d0a00005061000085
:1040e000726100006d6500007465000072200000c0
:1040f0004465000073630000726900007074000082
:10410000696f00006e0900005061000072610000dc
:104110006d650000746500007220000041620000bf
:104120006272000065760000696100007469000039
:104130006f6e00000950000061720000616d0000a8
:10414000657400006572000020560000616c00007c
:10415000756500000d0a0000004600006f72000047
:10416000204d00006f7400006f72000020500000ae
:1041700061720000616d00006574000065720000ee
:10418000730900000055000073650000202700003f
:104190003f4d000027000000466f00007220000025
:1041a0005374000061720000746900006e670000c3
:1041b0002050000061720000616d00006574000015
:1041c000657200007309000000550000736500006f
:1041d000202700003f53000027000000466f00002a
:1041e00072200000436f00006e740000726f0000c8
:1041f0006c20000050610000726100006d650000dd
:10420000746500007273000009000000557300001f
:1042100065200000273f0000432700000046000003
:104220006f720000204c0000696d0000697400008e
:104230002050000061720000616d00006574000094
:1042400065720000730900000055000073650000ee
:10425000202700003f4c000027000000466f0000b0
:1042600072200000426f00006172000064200000b4
:1042700050610000726100006d650000746500000f
:1042800072730000090000005573000065200000f3
:10429000273f00004227000000000000ada0000002
:1042a000c3a00000cca00000e5a00000eea000002c
:1042b00006a100000fa1000025a100002ea1000012
:1042c00044a100000d0a0000496e0000636f000069
:1042d000727200006563000074200000436f0000ec
:1042e0006d6d0000616e000064210000205500002b
:1042f00073650000202700003f3f000027200000da
:10430000466f000072200000636f00006d6d0000ba
:10431000616e00006420000073650000742e0000d0
:104320000d0a0000004d00006f7400006f72000065
:104330002050000061720000616d00006574000093
:1043400065720000733a00000d0a0000004c000086
:10435000696d000069740000205000006172000067
:10436000616d00006574000065720000733a000022
:104370000d0a000000530000746100007274000018
:10438000696e00006720000050610000726100004b
:104390006d65000074650000727300003a0d000046
:1043a0000a000000426f00006172000064200000fb
:1043b00050610000726100006d65000074650000ce
:1043c000727300003a0d00000a000000436f000005
:1043d0006e740000726f00006c20000050610000dd
:1043e000726100006d65000074650000727300006a
:1043f0003a0d00000a0000000d0a00000d0a00003e
:10440000205300007065000065640000203d00003e
:10441000203200003230000030200000722e0000f8
:10442000702e00006d2e000020200000447500005a
:104430007479000043790000636c0000652000007f
:104440003d200000373200002520000050650000ac
:10445000616b00002043000075720000726500006f
:104460006e740000203d0000203000003234000057
:10447000352000006d410000200d00000a00000002
:104480000d0a00000d0a00002046000061750000c2
:104490006c740000203d00002046000061690000af
:1044a0006c65000064200000746f00002053000061
:1044b0007461000072740000200d00000a0000000a
:1044c000537000006565000064200000696e000004
:1044d00020720000706d0000203d000020000000f0
:1044e000202500002044000075740000794300007e
:1044f000796300006c650000203d00002000000092
:10450000303000003030000030300000000000008b
:020000040000fa
:10000800ee030000ee030000f80300000404000003
:1000180010040000ee030000ee030000ee030000f1
:10002800ee030000ee030000ee0300002c050000c4
:10003800ee030000ee030000460500002c06000059
:10004800ee0300000c050000080500004e04000047
:10005800ee030000ee030000ee030000ee030000d4
:10006800ee030000ee030000ee030000ee030000c4
:10007800ee030000ee030000ee030000ee030000b4
:10008800ee030000ee030000ee030000ee030000a4
:10009800ee030000ee030000ee030000ee03000094
:1000a800ee030000ee030000ee030000ee03000084
:1000b800ee030000ee030000ee0300001c04000045
:1000c800ee030000ee030000ee030000240400002d
:1000d800ee030000ee030000ee030000ee03000054
:1000e800ee030000ee030000ee030000ee03000044
:0800f800ee030000ee0300001e
:020000040000fa
:10010800ee030000ee030000f80300000404000002
:1001180010040000ee030000ee030000ee030000f0
:10012800ee030000ee030000ee0300002c050000c3
:10013800ee030000ee030000460500002c06000058
:10014800ee0300000c050000080500004e04000046
:10015800ee030000ee030000ee030000ee030000d3
:10016800ee030000ee030000ee030000ee030000c3
:10017800ee030000ee030000ee030000ee030000b3
:10018800ee030000ee030000ee030000ee030000a3
:10019800ee030000ee030000ee030000ee03000093
:1001a800ee030000ee030000ee030000ee03000083
:1001b800ee030000ee030000ee0300001c04000044
:1001c800ee030000ee030000ee030000240400002c
:1001d800ee030000ee030000ee030000ee03000053
:1001e800ee030000ee030000ee030000ee03000043
:0801f800ee030000ee0300001d
:00000001FF
