:020000040000FA
:0400000029EF03F0F1
:0400080016EF00F0FF
:0400180028EF00F0DD
:02002A000000D4
:04002C000101E1CF1E
:1000300003F1E2CF04F19EBC86D0A4B297D0A4B461
:10004000A2D0A4B6ADD003C1E1FF04C1E2FF11000C
:10005000006EE0CF02F0D8CF01F09EBA25D09EB05E
:1000600050D09EB806D002C0E0FF005001C0D8FFBB
:1000700010009DA8F8D701010891092F02D09D9882
:10008000F2D7EACF02F1E9CF01F101EE26F00B51F0
:10009000EBCFADFF0B2B200E0B19D8B40B6B02C1AD
:1000A000EAFF01C1E9FFDFD79DAAD9D70101AECF91
:1000B00016F1060EAB1420E108B9D5D708A302D07B
:1000C0000889D1D7EACF02F1E9CF01F101EE46F07C
:1000D00008950D5116C1EBFF0D2B200E0D19D8B44C
:1000E0000D6B0C2B02C1EAFF01C1E9FF200E0C19B8
:1000F00001E0B9D70883B7D7AB980000AB88088771
:10010000B2D701019E90F30ECF6ECB0ECE6E072AB2
:10011000098C00A109D01B3FA6D71C2B1CA7A3D775
:100120001B6B1C6B00839FD700A99DD700B19BD789
:1001300009AE99D7063F97D705510709066F827A0E
:100140008278827690D7C4CF1EF0C4CF03F02168A6
:100150001EC01FF01EC020F003C005F1088A9E9C3F
:10016000C28200A170D7E4C104F06DD768CFE5F179
:1001700069CFE6F1DDEC00F0A49228B064D7829A52
:1001800080B4828A60D766CFE5F167CFE6F1DDEC17
:1001900000F0A49428B057D7829880B6828853D7AD
:1001A00064CFE5F165CFE6F1DDEC00F0A49628B070
:1001B0004AD7829680B8828646D709A003D010EE2F
:1001C0000EF002D010EE16F080501C0BE840E84014
:1001D000E3506B6E120009A8120009A40ED009AA00
:1001E00007D0ACEC01F0DEEC02F0099809941200A3
:1001F000A1EC01F009980994120009A61200A1ECE3
:1002000001F0300E0D6EC9EC02F00D2EFCD7ACECF7
:1002100001F0099809960970120009840992098869
:10022000099A120009BA04D0098409920988098A36
:1002300008EC05F0E8CFE2F108EC05F0E8CFE3F1D7
:1002400008EC05F0E8CFE4F112000986099209886C
:100250001200010EE8B002D00990120009801200CD
:100260000950010B4AEC05F01E504AEC05F01F50F6
:100270004AEC05F020504AEC05F021504AEC05F01C
:10028000E5C1E8FF09AAE86A4AEC05F0E6C1E8FF23
:1002900009AAE86A4AEC05F027504AEC05F0E7C1E4
:1002A000E8FF4AEC05F0E8C1E8FF4AEC05F0E9C1D7
:1002B000E8FF4AEC05F0EAC1E8FF4AEC05F00C0E55
:1002C0001E6F150E1D6F95EC04F0120001EEB6F0D6
:1002D00025C107F108EC05F0EE6E072FFBD701EE04
:1002E000B6F0A96AF29EF29EA69CA69E25C107F1D1
:1002F000A684EE50A86E550EA76EAA0EA76EA68213
:10030000A6B2FED7A92A072FF4D7A6941B6B1C6BA5
:10031000F28E1200086B096B0A6B0B6B0C6B0D6B8A
:100320000E6B0F6B106B116B126B136B146B156BE9
:100330000F830F8908850093009500971B6B1C6B3A
:1003400012006B6A786A766A746A796A776A756A83
:10035000036A046A056A1200036A046A056A1E6A6F
:100360001F6A206A2168086A030E6C6E276A286A71
:10037000256A266ADDEC00F01200089A09AA12002C
:1003800028B01200D4C1E8FF0502F3CF23F0F4CF68
:1003900022F0D5C1E8FF0502F35022266E822250DA
:1003A000786E766E746E2350796E776E756E6E927F
:1003B0001200AD6AAE6AB06AAF6AAC6AAB6AAA6A8A
:1003C000AB8EAB88AC8AAC84AA800F830F8908857A
:1003D0001200110EC26E000E996E030EB86E400E22
:1003E0009A6E100EC16E7A0EC06EC36AC46A120095
:1003F000B00ECD6EF30ECF6ECB0ECE6ECD80120052
:100400007E6A000E7F6E4F0E6F6E010E6E6E000ED6
:100410006D6E6B6A6A6A030E6C6E716A706A796AD5
:10042000776A756A786A766A746A1200CEC1E8FFE4
:10043000E8B07F82E8A07F92D2C17BFFD3C17AFF70
:10044000800E7E6E1200FF0E926EC00E936EC70E6F
:10045000946E1200590EB76E480E636E480E626EAF
:10046000480E616E606A800EB66E1200BEC1E8FF73
:10047000E8B621D0240E0E6E060E0F6E000E106E22
:10048000090E116E120E126E000E136E210E146EF6
:10049000180E156E180E166E210E176E000E186EC1
:1004A000120E196E090E1A6E000E1B6E060E1C6ED1
:1004B000240E1D6E1200000E0E6E120E0F6E240E14
:1004C000106E060E116E090E126E180E136E210EAE
:1004D000146E000E156E000E166E210E176E180E9D
:1004E000186E090E196E060E1A6E240E1B6E120E71
:1004F0001C6E000E1D6E1200F26AF16AF06A9D6AAF
:10050000A06AA36A9E6AA16AA46A9F6AA26AA56A8F
:100510009F8CA582A584A5869D8C9D8A9D80A382A3
:10052000A384A386930ED06EF28CF28E120001EE9D
:10053000B6F02C0E076FA69CA69EA96AA680A8CF2F
:10054000EEFFA92A072FFAD7120082B0B0EF02F00F
:1005500009B21200C3EC02F009A2120009841200D1
:1005600082B4BBEF02F009B21200C3EC02F009A2A0
:1005700012000986120009A212000992098809A432
:100580001200097A12000A2E12000982FF0E0A6E6A
:100590001200FF0E0B6EFF0E0C6E0C2ECDEF02F054
:1005A0000B2ECBEF02F00B6A0C6A120000EE00F08B
:1005B000EE6AEAA2FDD7E9AEFBD71200829A8298D2
:1005C000829612000450055CD8B41AD0D8A00CD082
:1005D000CCC1E8FF055CD8A0E86A066E046004C0E0
:1005E00006F006C005F00CD0CBC123F00550232443
:1005F000D8B0FF0E066E046404C006F006C005F015
:10060000076A1200099C292A090E296402D0256A6A
:10061000296A6CA40AD0252A010E256406D06C92A2
:10062000F8EC00F0099A2780288028A004D028A29E
:10063000DEEC02F02882242A130E24641200246ABD
:1006400027B0827A1200CFC1E8FF0302F4CF04F092
:02065000120096
:0E065200D16AF26A0101CD90D6EC02F097EC6D
:1006600002F023EC02F0D9EC01F0E9EC01F0F8EC37
:1006700001F02AEC02F036EC02F000EC02F0098EF8
:1006800000897CEC02F0C282AAB001D007D000A998
:10069000FBD782A0A2D082A4A0D0F6D7F29C84EC93
:1006A00005F0F28C0C51FEE000A52DEC04F032ECCC
:1006B00004F000B7B3D000B5F5D7050E25C119F188
:1006C0001963B6D008EC05F0490E1963B1D008ECF7
:1006D00005F04D0E1963ACD008EC05F0430E19631C
:1006E000A7D008EC05F0470E1963A2D008EC05F07E
:1006F000550E19639DD008EC05F0490E196398D08A
:100700000081FAEC04F00A0E1E6F490E1D6F200ED8
:100710004AEC05F0030E4AEC05F0110E4AEC05F028
:10072000140E4AEC05F0B6C1E8FF4AEC05F0B7C17B
:10073000E8FF4AEC05F0000E4AEC05F0000E4AEC2A
:1007400005F0000E4AEC05F0000E4AEC05F095ECC1
:1007500004F0DEEC02F029EC01F0A1EC01F000D095
:1007600000B366D00C5142E000A52DEC04F032EC51
:1007700004F000B753D000B539D008EC05F0150AE5
:1007800021E01951120A0FE01951110A07E019511D
:10079000140A13E01951160A1AE040D0FAEC04F0DA
:1007A0000DEC01F0DDD7FAEC04F012EC01F000A939
:1007B000D7D716EC02F00099D3D7FAEC04F025EC69
:1007C00001F0CED7FAEC04F030EC01F0C9D766ECBA
:1007D00001F0FAEC04F00089C3D709AE07D016EC9B
:1007E00002F0DEEC02F029EC01F0099E00A1A5EC7C
:1007F00002F0EBEC00F009BC02EC03F000A123ECEA
:1008000003F008BABDEC01F0C70E076404D009AAD2
:1008100002D0E2EC02F000A1E0D7A2D700B308D0EA
:1008200000A106D0F29EF29E8AEC01F0F28E98D7DB
:10083000F29EF29EAF6AB06A0DEC01F0EBEC00F0B4
:100840008AEC01F000B100990091AA80DEEC02F080
:08085000276A286AF28E18D70E
:0808580000870000206B216BFA
:100860000085120000B3F8D708B51200F29C84ECA2
:1008700005F0F28C236F2051E8460C0FF924176F16
:10088000000EFA22FB221751F96E0FD010D011D0B2
:1008900012D019D024D02ED034D035D01200202B35
:1008A0002193E0D72363D8D7FAD7020EFBD7040EE3
:1008B000F9D7020EF7D72FD8E8B0D4D72351256F38
:1008C000076F226FECD727D8E8B0CCD72351246F1D
:1008D00022271CEC05F02567E2D7202BE0D71BD898
:1008E000E8B0C0D72193235122271CEC05F0072F35
:1008F000B9D7D5D710D8E8B0B5D722512363ACD734
:10090000CED7040ECFD72351030A01E0A5D7009517
:100910001C6B1B6B12002351040A03E021A3000C83
:100920009BD7217321A3000C010C206B216B08B114
:10093000FED72051E8460C0FF924176F000EFA225B
:10094000FB221751F96E09D00CD00FD012D01CD059
:100950002AD037D03FD042D01200020E64EC05F00E
:1009600041D0040E64EC05F03DD0020E64EC05F0BD
:1009700039D021B303D01E51040A37E01E5164EC74
:1009800005F01EC122F12ED021B303D01D51040A5F
:100990002CE01D51222764EC05F01EC107F11E67F3
:1009A00021D0202B1FD021B304D036EC05F0040A4F
:1009B0001CE021931A51222764EC05F0072FB7D7CA
:1009C00011D021B303D02251040A0FE0225164EC6C
:1009D00005F008D0040E64EC05F004D0030E64ECBE
:1009E00005F012002193202BA2D7040E64EC05F031
:1009F00021839DD7060E1D6F24514AEC05F01EC1C0
:100A00001FF1010E1E6F95EC04F01FC11EF11200C4
:100A10000101105102E10F83000C21EE66F012512A
:100A2000DBCF19F1122B300E1219D8B4126B10074C
:100A30000F910F95195112000101196F0FB5120096
:100A40000FA102D00F85120021EE66F00F93115115
:100A500019C1DBFF112B300E1119D8B4116B102BFB
:100A6000300E101901E012000F8112000101135124
:100A700002E10F89000C21EE96F01551DBCF1AF13F
:100A8000152B200E1519D8B4156B13070F970F9B54
:100A90001A51120001011A6F0FBB12000FA702D0EA
:100AA0000F8B120021EE96F00F9914511AC1DBFF43
:100AB000142B200E1419D8B4146B132B200E1319F9
:100AC00001E012000F8712009D980101186F08B114
:100AD0001200095107E118C1ADFF0B2B200E0B19B5
:100AE000D8B40B6B21EE26F00A5118C1DBFF0A2B9C
:100AF000200E0A19D8B40A6B092B200E0919D8A4A4
:100B000001D008819D881200010121EE46F00E51AE
:100B1000DBCF18F10E2B200E0E19D8B40E6B0C4F34
:0A0B20000885089308991851120087
:020000040030CA
:0E000000FF36FAFEDFFFFAFFFFFFFFFFFFFFF4
:0200000400F00A
:10000000000082323CFC08040C0000C83F7A0D005E
:1000100000000000000A0A732026E50338011A00D8
:0C0020003E00000000000000000A00008C
:00000001FF
