:020000040000fa
:080000000001040000000000f3
:020000040000fa
:100200008fa1200080bf20000001880000000000b6
:10021000050007000c000700660c0200000000004b
:100220000040da000000fe004440a90000ea20007f
:100230000000e0000300320000002000a001880060
:100240004440a80000000600c01922000100200060
:100250001600370062004000e080480091018800ed
:100260009001ba0062004000e080480091018800df
:100270009002ba0062004000e08048000002eb00fb
:100280006028e10005003a008301e900070033001f
:10029000038009000059eb00040037006128e100e9
:1002a000010032000082eb00050007009101880088
:1002b0001001ba000200e000e6ff3a00000005006d
:1002c000910188008002780062004000e0804800d0
:1002d0003559ba008301e900080032002559ba00f7
:1002e0008301e900050032000400e000f4ff320061
:1002f00015d9ba008301e900f1ff3a0000000600b9
:10030000a20020008000eb00000037000800fa0087
:10031000889fbe00820478008a9fbe000004780097
:100320008c9fbe00800678008e1f78000106780042
:10033000010037000804e8001800fb0086000700f1
:100340000000e000fbff3a0098407800d0c2b30004
:1003500080cf50000400320000c0e900d0ef9f00c1
:1003600080cf500002003a00d1ef9f000804e8005f
:100370000900e00046003500e18f540044003200df
:1003800040022000808f540041003c000900e00042
:100390000d003400f08f54001a003a0000c3b3007f
:1003a000984f100017003a009840900080c7b300a3
:1003b00080cf50001200320080c5b30080cf5000c3
:1003c00010003a000e00370000c3b300984f100031
:1003d00002003200a90020000a0037009840900077
:1003e00080c7b30080cf5000040032008900200095
:1003f00080c5b30080cf500002003a000901200000
:100400000884e800d8b79f0000c3b300984f1000dd
:1004100002003a00d84f1000feff32006055b800cd
:10042000080778000e003700fab79f008bbf9f00c7
:10043000009a20006149b900004252000804e80017
:10044000c4ef9f000a00be00710007004fea97004a
:100450000401fb00cf91de000005410081854900c9
:100460001800fb00440007000901780080007800b4
:10047000009a200047000700000278000000e0001a
:10048000e9ff3a005fb09700880f500005003a007e
:100490000c00e000010032000d0e78006000b80092
:1004a00027003700509c20008e00540069407800df
:1004b0000000fb0000805000170033004240a900fc
:1004c0000f003c004fe997000200fb00cf80de00e8
:1004d0000000550081805d00800f5500818f5d0018
:1004e000070039006149b900390007007fb1970062
:1004f0008fb99700820f5000838f5800060032009a
:1005000020022000b3c2b300a05088000085eb0099
:100510008085eb00d3ef9f00d0c2b3005fea970065
:10052000804f520002003a0060051500e0851d0072
:100530000c00e00001003200080e78000a00be0046
:100540004f0778004f06be004f05be004f04be00a7
:100550000080fa00000006006900e1000400350098
:100560006d00e100030034000002b1000100320020
:100570000000050010000500800078001104b100a3
:10058000030035009101b10001003c000050a000c3
:10059000000006000200e0000500320090cf1000cd
:1005a000040032000000e8000201e900fbff3a000d
:1005b0000000eb0000000600b05080000000e000ea
:1005c000010032000000010040a1200000000600f0
:1005d0006022b800060220000000d0008180d20016
:1005e0000482d2008582d2000000a00002025200e4
:1005f00083825a0003003b000202420083824a00c9
:100600000000a1000603e900f3ff3a000000060025
:10061000020ab900001bb9000200b80081004200c4
:100620008100430000000600839f68000100e00095
:1006300002003d0060001000e08018000300e000b0
:1006400002003d0060011100e0811900e0ff070099
:100650004f00e00002003b0060001000e080180046
:100660000000060011042400013b88006427ef000d
:1006700000f0a100103b880061c7a80051052000d0
:10068000313b8800a10a2000313b880061e7a800c7
:10069000000000000000000000000600130024001d
:1006a000033b880000f0a1003220ef008001eb0046
:1006b0003108bb000398bb003108bb000398bb00a6
:1006c0003108bb000398bb003108bb000398bb0096
:1006d0003108bb000398bb003108bb000398bb0086
:1006e0003108bb000398bb003108bb000398bb0076
:1006f0003108bb000398bb003108bb000398bb0066
:100700003108bb000398bb003108bb000398bb0055
:100710003108bb000398bb003108bb000398bb0045
:100720003108bb000398bb003108bb000398bb0035
:100730003108bb000398bb003108bb000398bb0025
:100740003108bb000398bb003108bb000398bb0015
:100750003108bb000398bb003108bb000398bb0005
:100760003108bb000398bb003108bb000398bb00f5
:100770003108bb000398bb003108bb000398bb00e5
:100780003108bb000398bb003108bb000398bb00d5
:100790003108bb000398bb003108bb000398bb00c5
:1007a0003108bb000398bb003108bb000398bb00b5
:1007b00061c7a80051052000313b8800a10a200034
:1007c000313b880061e7a800000000000000000045
:1007d00000000600801f780000702000400e880096
:1007e000ffff3700801f780000702000400e880057
:1007f0000060fe00feff3700801f780000702000c0
:10080000400e88000060fe00feff3700801f780069
:1008100000702000400e88000060fe00feff3700e0
:100820005c29ec005e69ec0088e0a900004006004d
:10083000809fbe0046c9bf00e24f50000e0032004c
:10084000f04c8000800078000000e800f04c880048
:10085000700c2000808f50000700360000702000d0
:10086000400e880040c0b30046e9b7004749e200a7
:1008700001003a0047e9b7008960a9004f00be00b7
:10088000004006008560a9003600f800809fbe0089
:10089000bfc8bf00829fbe00849fbe00869fbe006f
:1008a0000018a3001700320030158000e40f50003c
:1008b0000b00320003003e00e30f50000400320042
:1008c0000d003700e50f5000090032000a00370024
:1008d00000148000404b88004000200007003700d3
:1008e00000148000504b88005000200003003700a7
:1008f00000148000604b8800300020003015880014
:100900000200370000148000204b88001014800083
:10091000004b880020148000104b880030148000a9
:10092000304b88004749e2000300320040c0b3006a
:1009300046e9b7002a003700204380006209e3003f
:10094000080036004649e200060032000070200030
:10095000400e880040c0b30046e9b70020c0b30095
:100960000a003700304380006009e30009003600c8
:100970004649e2000700320000702000400e880067
:1009800040c0b30046e9b70030c0b30047e9b70044
:1009900013003700c5010700bec8bf000038a30020
:1009a00002003200d04b800030158800bfc8bf0065
:1009b0000018a300030032004649e20001003200a3
:1009c0005f020700bfc8bf000008a30003003a0091
:1009d000bec8bf000068a300010032009b000700f2
:1009e0004f03be004f02be004f01be004f00be00cd
:1009f0003600f900004006008540a90000400600ce
:100a00008520a900809fbe0091108000c046800014
:100a100001487800d1c0b300c046800090cf1000dc
:100a200003003a00c0e8a800a08d200001003700b4
:100a30000000e800c04688004f00be0000400600ed
:100a4000801f780000702000400e880040c0b30076
:100a500046e9b7004749e20002003a0060c0b3002f
:100a600047e9b7008c60a9004f0078008460a900b6
:100a700000400600809fbe00bec8bf00821f7800f5
:100a80000068a30016003200be68a800bec8bf0000
:100a90000048a30012003a009369ef0080c0b30041
:100aa000819420009140780092e9b700bec8bf0051
:100ab0000028a300050032000140e800e5cf500007
:100ac00006003a004869ef000500370050c0b30047
:100ad0000104e000010032000140e90048e9b700ec
:100ae000c0c8bf000058a30006003200c0a8a9007b
:100af00080c0b300bec8a800be68a80092e9b700d5
:100b00009369ef00bec8bf000078a3000400320064
:100b1000bf08a80060c0b300bee8a90092e9b70012
:100b20009249e200010032009269ed00bfc8bf00a7
:100b30000008a30003003a00e04b80006008880032
:100b40000621ef0082942000124178008280fb0091
:100b5000e28f50001300320006003c00f06f2000ce
:100b60000100e00011003200e18f50000900320066
:100b700019003700e48f50000f003200f09f200072
:100b8000e38f500009003400e58f50000e00320062
:100b900011003700f02f2100a00e88004000200037
:100ba0000c003700f08f210008003700a00e8800ed
:100bb0005000200007003700f01f2200d14b8800b2
:100bc000a00e880004003700f04f2200a00e88001d
:100bd00030002000d04b8800bfc8bf000008a30031
:100be00011003a00bec8bf000068a30010003a0020
:100bf000bec8bf000028a300050032000240e80084
:100c0000e54f510006003a004869ef000800370040
:100c100050c0b3000204e000010032000240e900cd
:100c200048e9b70002003700be68a8008cc0a900e0
:100c30004f01780084c0a9004f00be0000400600ac
:100c400084e0a9008ce0a90000400600bec8bf00f7
:100c50000038a30015003200be68a900ea29ef00a1
:100c6000bea8a900ec69ef00be88a90028c9bf0092
:100c7000ede9b700bec8bf00819420009140780024
:100c80000028a300030032000108a3000500320081
:100c9000020037000108a30002003a00c0c8a90002
:100ca00001013700c0c8a800ff003700edc9bf0030
:100cb000030032000040e900ede9b700fa00370018
:100cc000bec8bf000048a300f7003a006009d50085
:100cd000c29e200012417800ee09b400a1922000cb
:100ce000914078000000d100704f8800814f510082
:100cf00001003a00bea8a800c0c8bf000068a30059
:100d00000f003200814f510005003100704f80000c
:100d10006409e300020036000240e800ece9b70095
:100d2000c19e2000914078000104e00014003200d0
:100d3000704f80006409e30011003e000e00370090
:100d4000814f510005003100704f80006409e300bd
:100d5000020031000240e800ece9b700c19e20002b
:100d6000914078000104e00005003200704f8000df
:100d70006409e300020039000140e900ece9b70032
:100d8000bec8bf000058a300c5003200c0c8bf00e5
:100d90000068a30005003200704f8000ea09e300fc
:100da00002003e006409e30008003600c0c8bf002e
:100db0000068a300ba003a00704f8000ea09e3001f
:100dc000b70039006409e300b50039003409800038
:100dd0008194200091407800bec8bf000028a30085
:100de000100032000180fb00e20f50001d003200b5
:100df00005003c000000e0001c003200e10f500044
:100e00001c0032001e003700e40f500019003200b1
:100e1000e30f500015003400e50f500011003200c0
:100e2000170037000180fb00e20f50001100320074
:100e300005003c000000e0000a003200e10f500015
:100e40000a0032000e003700e40f500007003200a5
:100e5000e30f500003003400e50f5000050032009e
:100e600007003700b04b800003003700a04b800024
:100e700001003700c04b800000005200504c880039
:100e800083942000934178000304e00004003a00ba
:100e9000c04b80008629ef0000005200004c880003
:100ea000554c8000414c80000500d10001005000ed
:100eb000704c88004240a90002003c001000200055
:100ec000704c880040062000624c80000028b8006a
:100ed000110009000280d800804c8800d0438000b7
:100ee0009009e30003003e00e04380009009e30026
:100ef000110031009249e2000f003a00007020001a
:100f0000400e88008cc0a900bf08a9002609e20095
:100f100004003200bf28a800be68a800c068a9006d
:100f20006100370040c0b30046e9b70060c0b300bd
:100f300047e9b7005c003700bec8bf000028a30027
:100f4000050032000340e800e5cf510006003a00fa
:100f50004869ef000500370050c0b3000304e0000b
:100f6000010032000340e90048e9b700bec8bf00f5
:100f70000068a3000b003a00704c800060088800f5
:100f80000621ef000500d00084c0a9008cc0a80095
:100f9000100888000021ef008460a9008c60a80080
:100fa000100037009369ec0093c9bf00e14f500077
:100fb0000c0036008cc0a90030c0b300bec8a90028
:100fc000bf08a80046e9b70060c0b30092e9b700c7
:100fd000704c8000600888000621ef0084c0a900e2
:100fe0008cc0a800bec8bf0081942000914078004a
:100ff0000028a300100032000180fb00e20f500027
:101000001d00320005003c000000e0001c00320022
:10101000e10f50001c0032001c003700e40f5000ac
:1010200019003200e30f500015003400e50f5000a6
:1010300011003200150037000180fb00e20f500064
:101040001100320005003c000000e0000a00320000
:10105000e10f50000a0032000c003700e40f50008e
:1010600007003200e30f500003003400e50f50008a
:101070000500320005003700b44b8800030037003c
:10108000a44b880001003700c44b8800504c8000fe
:10109000be88a800604c8800ec69ef00bea8a900db
:1010a000204b8000504f88000000060046c9bf005a
:1010b000889fbe008a9fbe008c9fbe00e14f5000fb
:1010c00017003200bfc8bf000018a30014003a0088
:1010d000c0c8bf000018a30011003a0046c9bf00f5
:1010e000e24f500006003a00100020003809e300eb
:1010f00003003a00c0c8bf000028a3000800320067
:1011000046c9bf00e34f500009003a005047800035
:10111000e20f5000020032000000e00004003a003c
:10112000f029ef00f229ef00c088a8008000370006
:10113000114b8000f04b8000be28a9005a09b40072
:101140008103500080438000a143800000bdb900ae
:10115000a04f8000008053000184b900c0c8bf00c8
:101160000048a300010032006044b8000a024400b5
:101170008b824c00924a8000a34a8000820f52006a
:10118000838f5a000c003400be28a8000200be0065
:10119000e00f5100e08f590002003d00f01fb00049
:1011a0000180b000470bdd004900de000000730045
:1011b000c988de000f003700b04a8000c14a8000b5
:1011c000800f5200818f5a000e003d00be28a800fb
:1011d000e00f5000e08f580002003d00f01fb0000b
:1011e0000180b000470edd004900de0000007600ff
:1011f000c988de00d61c200000034300f029ef0060
:10120000f229ef00bec8bf000018a3003e003a005c
:101210008c4f80009d4f80009043800000b8b90043
:101220000c0040008d804800804f8800914f88005e
:101230000402400085824800820f5200838f5a00ca
:101240000c003400be28a8000200be00e00f5100d0
:10125000e08f590002003d00f01fb0000180b00097
:10126000c70edd004900de0000807600c988de0080
:1012700010003700b24a8000c34a8000820f52003b
:10128000838f5a0014003d00be28a8000200be0053
:10129000e00f5100e08f590002003d00f01fb00048
:1012a0000180b000470add004900de000000720046
:1012b000c988de00d61c2000000343000a0051004c
:1012c0008b8059000800500089805800804f8800aa
:1012d000914f88000c0037000400be00e00f520060
:1012e000e08f5a0002003d00f01fb0000180b00006
:1012f000470bdd004900de0000007300c988de00f6
:10130000d61c2000000343000600e00001003d0061
:101310000003eb00a0392000a74f8800060350000f
:10132000b60e8800c60e8800d60e8800c088a900b8
:101330004f06be004f05be004f04be000000060071
:10134000bec8bf000038a30012003200be68a9006a
:10135000f629ef00bf48a900f829ef00bf68a900ef
:10136000fa29ef00bf88a900fc69ef00fd69ef00d2
:10137000fe69ef00002aef00c0c8bf000038a300dc
:1013800002003a0040c0b30002eab700c048a9001a
:101390004d01370024a02000144278000404e0002e
:1013a00008003a004749e20006003a0040c0b30096
:1013b00046e9b70010c0b30047e9b700bf28a9004d
:1013c00041013700434b8000724b8000828f5100f7
:1013d00007003100c19f2000914078002ec9bf0056
:1013e00080cf5000020031000140e800fce9b70066
:1013f000e592200095427800fcc9bf00854f50005f
:1014000055003a0002007800f609e3005200390066
:10141000828f51005000390033098000bfc8bf00df
:101420000028a300be003a00fc69ef00bfc8bf005f
:101430000048a3001900320050c0b3008629ef0015
:1014400048e9b700f04f2200a00e8800005080004d
:1014500080805100bec8bf008102d1004209de0079
:1014600005824000044c88000028a30004003a00d4
:1014700020c0b30048e9b700f08f2100c400370056
:10148000c01c2000800f52000401360081805100f2
:101490000280500082804000f2003700bfc8bf00c9
:1014a0000038a3002a00320020c0b3008629ef00d4
:1014b00048e9b700f08f2100a00e8800005080009e
:1014c00080805100bec8bf008102d1004209de0009
:1014d00005824000044c88000028a300150032005b
:1014e00050c0b30048e9b700f04f2200a00e8800ba
:1014f000e2498000c048a80000b02400c028a9002c
:10150000bf28a900e54b8800e14b8000be48a90038
:1015100001005000110009000280d800004388003b
:1015200084c0a800f04280008cc0a800d04a880087
:10153000d7003700c01c2000800f5200d7003600b3
:101540000180510082005000020040003600370048
:1015500003508800bf48a800524b8000814b800098
:10156000810f510005003100fdc9bf00854f5000bb
:10157000020031000040e800fde9b700e5922000dc
:1015800095427800fdc9bf00854f50004d003a00dc
:1015900001007800f809e3004a003900810f51008a
:1015a0004800390033098000bfc8bf000038a300dd
:1015b0005b003a00bfc8bf00fd69ef004200de00db
:1015c00061006000e10f50001b003a0048e9b700dd
:1015d0008629ef00f02f2100a00e88000050800027
:1015e00080805100bec8bf008102d1004209de00e8
:1015f00005824000044c88000028a30004003a0043
:1016000040c0b30048e9b700f01f22006000370077
:10161000c01c2000800f5200a00036000180510045
:101620008200400002005000a14b8800b04b8800af
:10163000028051001f003700bfc8bf000048a30050
:101640001e00320040c0b3008629ef0048e9b70011
:10165000f01f2200a00e8800005080008080510002
:10166000bec8bf008102d1004200de0005824000fa
:101670004209de00044c880061006000e10f500068
:1016800003003a0048e9b700f02f210097ff370028
:10169000c01c2000800f52008000360002805100e4
:1016a000a04b8800018051008200500002004000e1
:1016b000b14b8800c04b88006e0037000350880093
:1016c000bf68a800634b8000924b8000828f51005e
:1016d00005003100fec9bf00854f500002003100f7
:1016e0000040e800fee9b700e19f2000914078004b
:1016f0002ec9bf0080cf50006d003a000200780074
:10170000fa09e3006a003900828f5100680039004d
:1017100033098000bfc8bf000048a30007003200a3
:10172000c068a8000404e000020032000440e900a0
:1017300002eab700be68a80063003700fe69ef0048
:10174000bfc8bf000038a3002c003200f09f20006b
:1017500036c0b300a00e88000600780048e9b70044
:10176000005080008629ef0080805100bec8bf0075
:101770008102d1004209de0005824000044c88004d
:101780000028a3000c003a004869ef00f06f200029
:10179000a00e8800e2498000c048a80000b02400e4
:1017a000c028a900bf28a900e54b8800e14b8000b4
:1017b000be48a80056ff3700c01c2000800f520012
:1017c0003600360002805100bf28a900a04b8800d7
:1017d000bee8a80001805100654c880082004000ee
:1017e0000003fd0046e9b7000003fd0002005000c1
:1017f000b14b8800c04b880023003700bfc8bf0032
:101800000028a30028003200f06f20004869ef0094
:10181000a00e88008629ef000050800080805100d3
:10182000bec8bf008102d1004209de00058240002f
:10183000044c88000028a3000400320030c0b3002c
:1018400048e9b700f09f200028ff3700c01c2000a7
:10185000800f52001100360081805100028040004c
:1018600082805000a04b880002805100b04b88005d
:10187000c14b8800bf28a90030c0b300bee8a80053
:10188000654c880046e9b70084c0a8008cc0a80059
:1018900070772000400e88000b003700be68a8005b
:1018a000c028a8000800370003508800bf88a8009f
:1018b000404b8000b04f8800504b8000c04f8800e4
:1018c000604b8000d04f880000000600881f780021
:1018d0004669ef000044eb00650207007202070052
:1018e00093020700a0020700a5020700c402070038
:1018f0008960a90000c7b3008140a8008120a8002a
:101900008100a800a960b70090e0a8009160a8003d
:101910008d60a800bf28a800bf28a9000004fd0012
:1019200095e9b7000004fd00600307000844e800e3
:10193000c0c2b300804f5400f8ff36009569ef0035
:101940000060fe0006000700b902070046c9bf009c
:10195000e14f5000faff3a0004050700f8ff370096
:10196000e195200091407800f0c9b30080cf50008d
:101970004d0036005e69ef00e60407009249e20080
:1019800002003200b04780000e0037000500fc0066
:10199000d04880008009bc000200be008306200001
:1019a000830f5000e08f580002003e0082a9ef0034
:1019b000050037000001be000080270091062000ce
:1019c00003fb0700104c880046c9bf00e34f5000de
:1019d000010032008629ef004749e20018003a0072
:1019e000204880008209e30009003600bfc8bf001c
:1019f0000008a3000600320000702000400e88009e
:101a000040c0b30046e9b70050c0b30047e9b70093
:101a1000304c80000209e300070031000070200014
:101a2000400e880040c0b30046e9b70070c0b30064
:101a300047e9b700020037000000e800304c88009a
:101a4000114c8000f0478000808f50000200310070
:101a5000700020000a003700008050000009bc0020
:101a60000200be00024c800003002000e8fa0700dc
:101a700002f22b0023002000ebfa07006700400071
:101a8000404c8800bfc8bf000008a300010032001e
:101a900006000700d500070046c9bf00e24f50000e
:101aa00001003a000b0107000000060046c9bf0014
:101ab000889fbe008a1f7800e34f500002003a0062
:101ac0009249e20003003200042aef00062aef00e8
:101ad000c300370055478000e18f520036003200c6
:101ae0000500e00027003200e28f520003003200c0
:101af000e38f52001400320033003700b0468000fc
:101b000092498000042aef00062aef001100090024
:101b10000280d8008000fd00ca01a800a039200082
:101b2000808f500002003600d621ef0002003700ff
:101b300001005000b00e8800b00e8000c00e88007a
:101b4000b40e8000a2003700b0468000a249800099
:101b5000042aef00062aef00110009000280d800d5
:101b60008000fd00f04b80006408b500808f5000bd
:101b700002003900d04a880099003700d14a880015
:101b800097003700904a8000a14a8000450cdd0094
:101b9000cb04de00890474004504dd00b04a8000f7
:101ba000c14a8000450bdd00cb03de0087037300d4
:101bb0004503dd0004003700584a8000694a800070
:101bc000764a8000874a8000b0468000be08a9009f
:101bd0003609bc00104c8000224c880000055100e2
:101be0006043800000d1b900880f5100898f5900ef
:101bf0000a003400be08a8000800be00e00f540030
:101c0000e08f5c0011003d00f0ff23000100200088
:101c100008004000898048000c003700860f510002
:101c2000878f590013003d00be08a8000600be00c3
:101c3000e00f5300e08f5b0004003d00f0ff230045
:101c4000010020000600400087804800420add00b5
:101c50004e00de0000007200ce88de000002780038
:101c60000500e00001003a00d41cb000042aef0097
:101c7000062aef00bec8bf000008a3004a003a00d1
:101c800024508000355080007043800000d0b9009f
:101c900004004000858048002050880031508800b2
:101ca0000000410081804900880f5000898f580052
:101cb00014003400be08a8000800be00e00f540065
:101cc000e08f5c0004003d00f0ff230001002000d5
:101cd0000800400089804800c20add004e00de0096
:101ce00000807200ce88de0000027800ea08e20080
:101cf00001003a00d41cb0000200540083805c0054
:101d000016003700860f5000878f580016003d00e0
:101d1000be08a8000600be00e00f5300e08f5b0085
:101d200004003d00f0ff23000100200006004000f9
:101d300087804800420add004e00de00000072008d
:101d4000ce88de0000027800ea08e20001003a00d6
:101d5000d41cb0000200530083805b002050880038
:101d600031508800100037000001be00e00f500025
:101d7000e08f580004003d00f0ff23000100200028
:101d80000201400083814800c21add004e10de00cf
:101d900000807200ce98de0000027800ea08e200bf
:101da00001003a00d41cb000ea08e2000b003a003f
:101db0000400e00001003d000002eb00ca01a800a1
:101dc000a039200004025000b40e8800c40e880020
:101dd000d40e8800ca01a90001003700d44a880047
:101de0004f0578004f04be000000060046c9bf0042
:101df000e34f50000300320046c9bf00e24f5000dd
:101e000010003a008cc0bf000078a300010032002f
:101e10008ce0a9009046800051438000060020001d
:101e20009700200001025000b043800000a1b900db
:101e3000860f5100878f590002003c00ea0f4200d4
:101e400003003d00082aef000a2aef000000060008
:101e5000c043800000a0b90044508000555080006d
:101e600004004000858048004050880051508800a0
:101e70000000410081804900860f5000878f580084
:101e8000030034000200530083805b00050037002c
:101e9000e00f5000e08f580005003c00600011008a
:101ea000e080190040508800515088000000060072
:101eb000c70add004900de0000807200c988de002c
:101ec000700888000a21ef0084e0a9008ce0a800d7
:101ed00000000600c0c8bf000018a3000a003200be
:101ee0004200f80042e0a80042c0a80042a0a900b9
:101ef000bf28a800be68a800c028a9004200f900b9
:101f00008049800007003700bfc8bf000018a30049
:101f100006003200605080000000e0000300320044
:101f20000000e9006050880000000600bf28a900fa
:101f3000c0c8bf000028a30017003200f0af240083
:101f40007c09e30003003e00004380007c29b400cc
:101f5000000006004200f80042e0a80042c0a800cd
:101f600042a0a900c048a90041478000bec8bf00e8
:101f7000e1c060000024a100c208dd000140700043
:101f8000bee8b7008cc0a900bfe8a900bfa8a9009f
:101f9000bfc8a9004200f900bfc8bf000078a30075
:101fa0004f00320033468000031ab800e24280003e
:101fb0001100090042aad800b14280000102b80015
:101fc0001100090042aad800a14280008080400090
:101fd000714688007046800050468000009ab80024
:101fe0001100090042aad80060468800c042800063
:101ff00061468000808040003809e200080032001d
:10200000ca01a800a039200081005000b10e88004c
:10201000c10e8800d10e8800ca01a9000100370056
:10202000d14a8800704680001a09bc000080220056
:102030003102200066f90700e10f4000e08f5800f0
:10204000020036007ca9ef0001003700e04b880059
:10205000f14980000100e00008003a0010438000d0
:102060007c09e30005003e00bec8bf000068a30075
:1020700002003a00c0a8a8009369ef002046800043
:102080007c09e30016003e004200f80042e0a80090
:1020900042c0a80042a0a900bfe8a900007020002b
:1020a000400e88008cc0a900e18f500006003a0065
:1020b000bf28a80030c0b300be68a800c068a9004f
:1020c00046e9b7000400370040c0b30046e9b70056
:1020d00010c0b30047e9b7004200f9000000060055
:1020e000bfc8bf000058a3001b003a00bfc8bf0014
:1020f0000068a30018003a00bfc8bf000078a30022
:1021000015003a00c628ef00bfa8a8003809e20071
:102110000b003200ca01a800a039200081428000d3
:1021200001005000b00e8800b00e8000c00e880084
:10213000b00e8000d00e8800ca01a900020037004e
:1021400080428000d04a8800f06f2000a00e8800f6
:102150008007b000400e880060478000c608e3009a
:102160001c003900bfc8bf000058a300190032008e
:10217000bfa8a900c628ef00bfc8a8003809e20020
:102180000b003200ca01a800a03920009142800053
:1021900001005000b00e8800b00e8000c00e880014
:1021a000b00e8000d00e8800ca01a90002003700de
:1021b00090428000d04a8800bec8bf000028a3001b
:1021c00002003200f02f210001003700f04f220002
:1021d000a00e880070478000c608e3002200360089
:1021e000bfc8bf000068a3001f003200bfc8a9001d
:1021f000c628ef00bfe8a8003809e2000b00320053
:10220000ca01a800a0392000c1428000010050008e
:10221000b00e8800b00e8000c00e8800b00e8000a6
:10222000d00e8800ca01a90002003700c042800019
:10223000d04a88003e09e20005003a0010438000c1
:10224000c208e30002003e00c0a8a8009369ef00a6
:1022500030c0b30048e9b70010468000e04b88006a
:1022600084c0a8008cc0a800c628ec0000000600ae
:10227000c822ef0000702000ce22ef00d422ef0031
:10228000da22ef00400e8800c6a2ef000000260010
:102290006016880030002000901688000010200092
:1022a000c01688000000060000002800881f780083
:1022b000000e880008702000d01c2000200e88002e
:1022c000300e8800480e8800f0f02f00ca21ef0081
:1022d000cc21ef00800e8800f0ff2300a00e8800c4
:1022e000a0392000b00e8800c00e8800d00e8800f3
:1022f000400020002e0007000804600080007800e5
:102300004844de00e40f540005003200f00f2f00b7
:10231000808060004000200001a0a000290007008c
:1023200088e0a9004f0478008960a9000000060039
:10233000f0062000001588000020200010158800fd
:10234000300020002015880030158800000028008b
:102350004015880000022700501588008560a900fc
:10236000a1e2a800000006000091200010098800ea
:102370002421ef0028a1ef008900a9000000060039
:10238000010228000080eb00210888001008880066
:102390008460a900810888006008880084c0a900c2
:1023a000910888007008880084e0a90000000600f9
:1023b000820f2000920188001000ba000000800007
:1023c00000000600820f2000920188008200240095
:1023d000023b88000108bb0061c7a800520520002d
:1023e000323b8800a20a2000323b880061e7a80047
:1023f00061c7bf000078a300fdff3a00000006009f
:1024000000002800601088000e22ef00f00120007c
:10241000a0108800a08d20008d20a800c046880054
:10242000c0e8a900c108a9000f42a80000000600ea
:10243000f06320005c09e3001a003600004b8000c6
:10244000d208b4000000d10090468800304b8000d4
:10245000d608b4000000d100b0468800104c8000bf
:10246000d008b4000000d10080468800104b8000e6
:10247000d408b4000000d100a04688000a0007007c
:102480005c29ef0046c9bf00e44f500001003a004c
:10249000ef03070046c9bf00e34f500001003a00b8
:1024a000cc0307000000060042c9bf00e14f500006
:1024b00001003a0046e9b7000004e00002003200e3
:1024c0000040e90042e9b70043c9bf000038a3005b
:1024d00005003a0094c9bf000038a3000200320092
:1024e00012caa8000100370012caa90046c9bf00dd
:1024f000801f780094c9bf0043e9b7004f007800ff
:102500000080fb00e20f50002d00320005003c006f
:102510000000e00064003200e10f500006003200cd
:1025200000000600e30f500030003200e40f5000be
:10253000450032000000060012caab001c00320049
:102540004200f80042e0a80042c0a80042a0a90052
:10255000c028a80040478000c048a9006140600032
:10256000c068a9004200dd00bfa8a900bfc8a9003b
:10257000bfe8a900bf08a900bf28a900bec8a900dc
:10258000e18b2000914078000124a10080c0700000
:1025900001007800bee8b7004200f90020c0b30097
:1025a000122aa90046e9b70012eaa9009e29ef0005
:1025b000126aab003c003200122aa800000006009c
:1025c00012caab003800320000702000400e8800b4
:1025d00010c0b300bf08a900bf28a9008c60a900e3
:1025e0008cc0a90046e9b7000000060092508000a8
:1025f0000268a3000800320000702000400e88002e
:1026000010c0b300bf08a900bf28a9008c60a900b2
:102610008cc0a90046e9b7000238a30022003200ae
:102620000000eb000278a30001003a001000200037
:10263000c700dd00020078000070a10001007000fa
:102640009050880000000600915080000168a300af
:10265000120032004769ef004200f80042e0a80093
:1026600042c0a80042a0a900bfa8a900bfc8a900f5
:10267000bfe8a900bf08a900bec8a900bf28a900db
:102680008c60a9008cc0a9004200f900803e2000a7
:10269000004c880010c0b30046e9b7000138a30021
:1026a00001003200122aa8000000060095c9bf00f0
:1026b000889fbe000080fb00010020008a9fbe00b2
:1026c0008c9fbe00c2022000820f5000e08f580095
:1026d0008c013e00006001002c00370089013700aa
:1026e000880137008701370030003700400037008d
:1026f000900037008f0037004e0037006100370030
:10270000740037007f0137007e0137007d013700fc
:102710007c01370009013700be0037007000370028
:1027200072003700740037007600370078003700f9
:1027300002013700790037007b0037007d00370049
:10274000b4003700b3003700fc003700fb0037004f
:10275000100137006b0137006a013700690137004b
:102760001401370067013700660137006501370043
:102770006401370063013700190137005601370043
:10278000600137005f0137006a003700bec8bf0034
:10279000414780000024a100e1c06000c208dd00c4
:1027a00001407000bee8b700560137008147800045
:1027b0003809e20003003200a03920000008b80008
:1027c00006003700f04b80006109b8006408b500ce
:1027d0006102b8000400be008df707004206200029
:1027e000030020007af70700804288004501370087
:1027f0009c4780003809e20003003200a039200025
:102800000060b80006003700f04b80006161b8003e
:102810006408b5006102b8000400be007cf7070040
:10282000420620000300200069f70700904288005c
:1028300034013700d8428000c94780003809e200df
:1028400003003200a03920000048b800060037001d
:10285000f04b80006149b8006408b5006102b8001f
:102860000400be006af707004206200003002000b3
:1028700057f70700c0428800c042800000005400a3
:1028800013013700dd478000c84280003809e200ac
:1028900003003200a03920000068b80006003700ad
:1028a000f04b80006169b8006408b5006102b800af
:1028b0000400be0056f70700420620000300200077
:1028c00043f70700d0428800080078005a08b50096
:1028d000ff003700e0478000e04288000901370030
:1028e000524880008243880006013700604880001b
:1028f000904388000301370072488000a24388009b
:10290000000137008048800060438800fd003700e8
:102910009248800072438800fa003700b048800077
:10292000b0438800f7003700c2488000c2438800e7
:10293000f40037004201200003002000a947800076
:10294000d84880000848b80021f707000001be0001
:1029500000202c00110020001df70700e10f4000af
:10296000e08f5800080036000081eb000080220054
:1029700031022000124688000241b80014f7070017
:10298000a04288000200370010468800a942880053
:102990004201200003002000ba4780000850b80020
:1029a0000bf707000001be0000202c0011002000e2
:1029b00007f70700e10f4000e08f580002003600e3
:1029c000c4a8ef0001003700204688000900550028
:1029d0004201200003002000b0428800004a80002d
:1029e0000800b800faf607000001be0000202c0025
:1029f00011002000f6f60700e10f4000e08f5800bc
:102a00000200360062a8ef00be00370010438800c5
:102a1000bc003700104b800041488000f04b88001c
:102a2000e2488000e00c200003002000000ab8000b
:102a30000400be00f6f607000002be00f048800069
:102a40006a00b8006101b8000400be00e0f60700ab
:102a5000124b800000004100020650002043880015
:102a60004206200003002000f00520000060b800ae
:102a7000edf607004e09dd00c200de0081007100a6
:102a80004e00dd00504a8800614a88006000100056
:102a9000e0801800704a8800814a88003809e20006
:102aa00024003a006165b800804780000a01be003a
:102ab00001002000d6f60700420620000300200097
:102ac000c3f607000a01be008042880090478000dc
:102ad00001002000cef6070042062000030020007f
:102ae000bbf607000a01be0090428800c047800084
:102af00001002000c6f60700420620000300200067
:102b0000b3f607000a01be000004be00c042880000
:102b1000d047800001002000bdf6070042062000db
:102b200003002000aaf60700d042880008005000e9
:102b3000504688006165b8006a003700ec0c200040
:102b4000304880000a4980000c02b8000b002000c9
:102b50000400be000a01be00adf60700184980005f
:102b60006a44b8000801be0099f607000a01be00d9
:102b700030438800a04880000c02b8000400be006a
:102b8000a3f607000801be0091f607005043880035
:102b90005c00370021498000400620000100400011
:102ba000d04388004006200001005000e043880028
:102bb0005400370062498000404b80008000410093
:102bc000504b8000714b880080004100020078006b
:102bd0006c09b400814b8800904b88004900370095
:102be000dd478000c94780009c4780008147800006
:102bf0003809e20015003200a83920004206200002
:102c0000030020000808b80071f607004206200003
:102c100003002000804288000860b8006cf60700be
:102c20004206200003002000904288000848b800b7
:102c3000086cb80066f6070042062000030020007a
:102c4000c04288000800be001d003700f04b800025
:102c50006408b5006105b8006108b8000a01be004b
:102c60006bf60700420620000300200058f607001c
:102c70000a01be00804288006160b80064f6070067
:102c8000420620000300200051f607000a01be00a2
:102c9000904288006148b8005df6070042062000b7
:102ca000030020004af607000a01be00c042880067
:102cb0006168b80056f607004206200003002000b5
:102cc00043f60700d0428800c04280005a08b50091
:102cd000504688000b003700f04b80006408b500b8
:102ce0006105b8000a01be00d04980000100200043
:102cf00047f60700420620000300200034f60700d4
:102d0000f04288004f06be004f05be004f04be00d3
:102d100000000600cfc2bf004600de006100600078
:102d20008040780010cabf000104a200c308dd0083
:102d300080cf5000040032000feab7000100780095
:102d400010eab700000006000fcabf0080cf500095
:102d500003003200010078000feab700000006000f
:102d60000100780094e9b70000000600c1c8bf0068
:102d70000048a30001003200c188a900c0c8bf00fc
:102d80000078a3002200320022000700c1c8bf0063
:102d90000028a30001003a004e000700c1c8bf0090
:102da0000008a3000f003200b7000700c2ec2900a2
:102db000e2c8bf000080fb006400b800600079003a
:102dc00020478800c0000700a9000700e2c8bf0034
:102dd000818e20000080fb000000d0006080780021
:102de0000b010700c1c8bf000018a300010032009a
:102df000b0000700a08d2000c0468800a200070098
:102e0000c108a900c0e8a900c128a900c148a900bb
:102e100000000600a18d200091407800f0c3b300af
:102e200080cf50002a003a00dbc8bf008080fb0042
:102e3000c0042000808f50001e0032000f003c00b4
:102e400069005000808f50001b00320007003c00da
:102e500064005000808f5000140032006300400076
:102e6000808f5000160032001800370060042000e8
:102e7000808f50001400320014003700200520001d
:102e8000808f50000f00320004003c0065005000ad
:102e9000808f5000060032000c0037003005200003
:102ea000808f500005003200080037009300370083
:102eb000270137002c013700310137003601370078
:102ec0003b0137001d01370017013700790007006b
:102ed00000000600e268ef00c108a900a08d2000f4
:102ee000238e200093417800c0468800e2ec290040
:102ef0000380fb006400b800600079002047880070
:102f000020478000c2468000b040780020478800fb
:102f100032407800c2468800814f500007003a00d6
:102f20009240780000c2b30080cf5000040032000d
:102f3000edcf500002003200f1ff3700c168a80059
:102f4000c1c8bf000038a30006003a00c146800097
:102f500000c2b300914f100010003200c108a80059
:102f6000070037008340e800c168a900010078002d
:102f7000e2e8b700c0c2b30080cf5000d7ff3600f0
:102f8000218e200091407800d0c2b30080cf500045
:102f900004003a00c128a800000006000300070052
:102fa000f7ff3700c108a8000000060040192a00fa
:102fb0000600fa00881f7800e88057000500090025
:102fc000b0587800c146800031407800c146880082
:102fd000ed4f5000fbff3a008100e90052c0b30002
:102fe000c146880000c2b300914f10000a003200b1
:102ff000c14680000280fb00a141780068005000bb
:10300000c146880003f07f000241e90000c2b3001e
:10301000914f1000f6ff3a00288e200018447800e7
:10302000808e20000884fb000804d00000044400c7
:1030300068805700b2f40700000c78000044eb00f1
:103040000004fd0095e9b7000004fd0097fd0700ae
:103050000844e800c0c2b300804f5400f8ff3600b7
:103060004f0478009569ef000080fa000000060028
:103070000fc2bf000018a300fdff3a00900020001f
:1030800080108800000006000fc2bf000018a300d7
:10309000fdff3a00d0002000801088000fc2bf0062
:1030a0000018a300fdff3a00a00020008010880057
:1030b0000000060060072a00204788000200070081
:1030c000c128a90000000600204780001004e0008d
:1030d000090032000fc2bf000018a300fdff3a0034
:1030e00020478000b080fb008110880020478800c6
:1030f0001004e000f7ff3a0000000600e268ef006d
:1031000022062a00e2c8bf000080fb006400b8006d
:103110006000790020478800ebff070042062a0084
:10312000e2c8bf000080fb006400b80060007900c6
:1031300020478800e4ff0700d3ff0700e248ec00c7
:10314000e2e8b700e44f5000edff3600c148a800a8
:1031500000000600e268ef00889fbe00804478000f
:103160000044eb000881fb000980fb006e00b80002
:103170000001410060ad290000014100e2c8bf002c
:10318000924f500019003a00c2ec29000080fb0069
:103190006400b8000844e800600079002047880017
:1031a000c9ff0700b2ff0700b1ff0700e2ec2900ea
:1031b000e2c8bf000080fb006400b8006000790036
:1031c00020478800c0ff0700a9ff0700a8ff0700ed
:1031d000818e2000e2c8bf000080fb000000d0000c
:1031e000608078000a000700a7ff0700e248ec00b3
:1031f00080407800e2e8b700c0c2b30080cf500042
:10320000d8ff3600c148a8004f04be0000000600e9
:103210000271220080017800110009000280d800ac
:10322000004278000004e000030032000080fb0050
:103230000280b900808151000fc2bf000018a300b6
:10324000fdff3a000480fb00823e20000003b00036
:1032500080108800110009008281d80000427800a7
:103260000004e000030032000080fb000280b9008f
:10327000808151000fc2bf000018a300fdff3a007b
:103280000480fb00420620000003b000801088008c
:10329000110009008281d800004278000004e0009b
:1032a000030032000080fb000280b90080815100e1
:1032b0000fc2bf000018a300fdff3a000480fb000e
:1032c000a20020000003b000801088001100090057
:1032d0008281d80000017800024278000204e000f8
:1032e000030032000280fb006a00b90080815100b7
:1032f0000fc2bf000018a300fdff3a000480fb00ce
:103300000003b000801088000fc2bf000018a300a7
:10331000fdff3a0001c3b30001c041000000fb0003
:10332000801088000000060040152a002047880011
:1033300065ff0700c148a8000000060000112a0030
:103340002047880060ff0700c148a8000000060071
:10335000700a2a00204788005bff07001a00070058
:103360000040eb007bff3700b00b2a0020478800ad
:1033700055ff07001400070040c0b30075ff370079
:10338000a00f2a00204788004fff07000e0007000b
:1033900030c0b3006fff3700f00c2a0020478800d0
:1033a00049ff07000800070020c0b30069ff37008d
:1033b000600e2a002047880043ff07000200070034
:1033c00010c0b30063ff370000f8290020478800d1
:1033d0003dff3700889fbe00b80e80000804d10072
:1033e000200e8000220e80000804500040062000bd
:1033f0000044b800811f7800110009000284d80041
:1034000000047800cf00780040172a002047880089
:103410002dff0700804680007dff070014ff070096
:1034200040182a002047880027ff0700080078007e
:1034300077ff07000fc2bf000018a300fdff3a008e
:10344000d00020004f04be0080108800000006005d
:10345000c1c8bf000048a3000e003a00c188a80000
:1034600009ff070061ac290047c9bf000080fb00cd
:103470000000d000608078002047880012ff07001d
:10348000fbfe070030d68400204788000eff0700af
:08349000fdfe0700000006002c
:020000040000fa
:0200000401f009
:04000000e6ff000017
:020000040000fa
:0200000401f009
:04000400ff7f00007a
:020000040000fa
:10000800ea030000ea030000f2030000fc0300001a
:1000180006040000ea030000ea030000ea03000007
:10002800ea030000ea030000ea03000020050000dc
:10003800ea030000ea0300003a0500002006000079
:10004800ea03000000050000fc0400004204000070
:10005800ea030000ea030000ea030000ea030000e4
:10006800ea030000ea030000ea030000ea030000d4
:10007800ea030000ea030000ea030000ea030000c4
:10008800ea030000ea030000ea030000ea030000b4
:10009800ea030000ea030000ea030000ea030000a4
:1000a800ea030000ea030000ea030000ea03000094
:1000b800ea030000ea030000ea030000100400005d
:1000c800ea030000ea030000ea0300001804000045
:1000d800ea030000ea030000ea030000ea03000064
:1000e800ea030000ea030000ea030000ea03000054
:0800f800ea030000ea03000026
:020000040000fa
:10010800ea030000ea030000f2030000fc03000019
:1001180006040000ea030000ea030000ea03000006
:10012800ea030000ea030000ea03000020050000db
:10013800ea030000ea0300003a0500002006000078
:10014800ea03000000050000fc040000420400006f
:10015800ea030000ea030000ea030000ea030000e3
:10016800ea030000ea030000ea030000ea030000d3
:10017800ea030000ea030000ea030000ea030000c3
:10018800ea030000ea030000ea030000ea030000b3
:10019800ea030000ea030000ea030000ea030000a3
:1001a800ea030000ea030000ea030000ea03000093
:1001b800ea030000ea030000ea030000100400005c
:1001c800ea030000ea030000ea0300001804000044
:1001d800ea030000ea030000ea030000ea03000063
:1001e800ea030000ea030000ea030000ea03000053
:0801f800ea030000ea03000025
:020000040000fa
:103498005072000065730000732000005332000072
:1034a800207400006f200000636f00006e7400003d
:1034b800696e000075650000202e00002e2e0000a9
:1034c80000460000616900006c650000642000008f
:1034d800746f0000205300007461000072740000d3
:1034e800004f000076650000722000004375000060
:1034f80072720000656e0000740000004f760000d4
:1035080065720000205600006f6c000074610000b6
:1035180067650000004800006172000064770000e1
:10352800617200006520000054720000697000009c
:10353800004f000076650000722000005370000004
:103548006565000064000000536500006e730000ac
:103558006f7200006c65000073730000204c00005f
:103568006f730000740000004d6f0000746f00005e
:103578007220000053740000616c00006c6500004c
:10358800640000004c9a0000659a0000759a0000db
:10359800829a00008f9a00009d9a0000a89a000065
:1035a800b89a0000001900002029000032320000fb
:1035b8003232000032320000323200003232000073
:1035c8001a1b00001c1d00002122000023240000fb
:1035d80025260000272a00003232000002030000de
:1035e8000405000006070000080900000a1e000084
:1035f8001f2800002b2c0000010b00000c110000fc
:1036080012130000141500001617000018320000ed
:10361800323200000d0e00000f10000032320000a0
:103628003232000032320000323200003232000002
:10363800444900005245000043540000494f00002f
:103648004e20000020200000202000002020000044
:103658000044000044000000434f00004e540000a6
:10366800524f00004c2000004d4f00004445000020
:103678002020000020200000004300004d00000032
:103688004c6f0000636b0000205000006f73000057
:103698002e31000020540000696d000065200000f4
:1036a800004c000050310000540000004c6f000036
:1036b800636b0000205000006f7300002e32000082
:1036c80020200000546900006d650000004c0000d7
:1036d80050320000540000004c6f0000636b000083
:1036e800205000006f7300002e31000020440000bd
:1036f800656d00002e200000004c000050310000d5
:10370800440000004c6f0000636b00002050000074
:103718006f7300002e32000020440000656d000029
:103728002e200000004c0000503200004400000031
:10373800526100006d7000002053000074610000a9
:10374800727400002053000070650000656400007a
:10375800005200005353000000520000616d000049
:1037680070200000456e00006420000053700000c7
:10377800656500006420000020000000524500003c
:1037880053000000526100006d70000020530000db
:10379800746100007274000020440000656d000030
:1037a8002e20000000520000534400000052000088
:1037b800616d000070200000456e0000642000006c
:1037c800446500006d2e000020200000200000004d
:1037d8005245000044000000526100006d70000076
:1037e800204400007572000061740000696f0000d9
:1037f8006e2000002020000000520000440000005d
:1038080050680000617300006520000041640000fa
:10381800762e0000204500006e610000626c0000fa
:103828006520000053700000642000000050000074
:10383800414500005300000050680000617300001b
:103848006520000041640000762e0000205300002f
:103858006c6f0000706500000050000041530000cc
:1038680000530000746100006c6c000020540000dc
:10387800696d0000652000004c6900006d6900005a
:1038880074000000535400004c0000004f76000004
:103898006572000020530000706500006564000038
:1038a800204c0000696d000069740000004f0000a2
:1038b800534c0000004f00007665000072200000a5
:1038c800566f00006c740000732000004c69000003
:1038d8006d690000740000004f5600004c000000a5
:1038e8004f760000657200002043000075720000ea
:1038f800726500006e740000204c0000696d0000c5
:10390800004f0000434c00000043000075720000a7
:10391800726500006e74000020500000204700000f
:10392800616900006e20000020000000434b000089
:10393800500000004375000072720000656e0000c0
:10394800742000004920000047610000696e0000f3
:1039580020200000004300004b4900000043000005
:1039680075720000726500006e740000204400004b
:1039780020470000616900006e2000002000000060
:10398800434b0000440000005370000065650000d0
:10399800642000005020000047610000696e0000ac
:1039a8002020000020200000005300004b500000a1
:1039b80000530000706500006564000020490000a5
:1039c80020470000616900006e20000020200000f0
:1039d80020000000534b000049000000566f000013
:1039e8006c740000616700006520000044650000f9
:1039f8006d6100006e640000202000000056000089
:103a080044000000566f00006c7400007320000032
:103a18005020000047610000696e0000202000006f
:103a280020200000005600004b5000000056000007
:103a38006f6c0000747300002049000020470000ec
:103a4800616900006e2000002020000020000000b6
:103a5800564b0000490000004e6f00002e20000069
:103a68004d6f0000746f000072200000506f00005e
:103a78006c65000073200000004d0000500000003d
:103a88004375000072720000656e0000742000002b
:103a980053630000616c000065200000582000009e
:103aa80000430000535800000043000075720000f6
:103ab800726500006e74000020530000636100000e
:103ac8006c650000202f0000200000004353000018
:103ad80044000000566f00006c7400007320000062
:103ae80053630000616c000065200000582000004e
:103af8002020000000560000535800000056000027
:103b08006f6c0000747300002053000063610000b4
:103b18006c650000202f000020200000200000001d
:103b28005653000044000000546f00006c6500000c
:103b3800726100006e6300006520000043680000a9
:103b4800656300006b200000005400004300000083
:103b580041750000746f000020520000652d0000c0
:103b68006163000071750000697200006520000043
:103b78000041000052410000004200006c6100005a
:103b88006e6b0000696e000067200000436f000044
:103b9800756e000074200000200000004243000001
:103ba800005a0000657200006f20000058200000d5
:103bb8004c650000766500006c2000005468000029
:103bc800640000005a5800004c00000041630000e7
:103bd80071750000697200006520000054680000db
:103be80072650000736800006c640000004100000a
:103bf8005400000041630000717500006972000004
:103c0800652000004c650000766500006c2000000f
:103c180054640000004100004c000000526f000096
:103c280074610000746900006f6e00002054000089
:103c3800696d0000656f0000757400000052000097
:103c480054000000506f0000742000002f20000076
:103c5800666f00007220000044750000747900004f
:103c680020200000005000004444000000500000e4
:103c78006f740000202f0000206600006f720000a3
:103c88002043000075720000726e0000740000008e
:103c98005044000043000000506f000074200000f2
:103ca80058200000666f000072200000537000006a
:103cb80065650000642000000050000058530000b3
:103cc800005300007461000072740000696e000007
:103cd80067200000436f00006e740000726f0000e0
:103ce8006c0000005343000000570000696e00009c
:103cf800646d0000696c00006c6900006e6700006c
:103d080020440000656d00002e00000057440000ac
:103d180000420000726100006b6900006e670000dd
:103d280020520000616d0000702000005420000047
:103d380020000000425200005400000041630000cf
:103d48007175000069720000652000004d65000073
:103d5800746800006f64000020200000004100002b
:103d68004d0000005a650000726f000058200000e6
:103d7800456e0000616200006c6500002053000081
:103d880070640000005a000058450000530000000d
:103d98001c9b00002d9b0000309b0000419b0000f5
:103da800449b0000559b00005a9b00006b9b000041
:103db800709b0000819b0000869b0000979b000081
:103dc8009c9b0000ad9b0000b19b0000c29b0000c3
:103dd800c69b0000d79b0000db9b0000ec9b00000b
:103de800f09b0000019c0000049c00001b9c00004c
:103df800209c0000319c0000359c0000469c00007f
:103e08004a9c00005b9c00005f9c0000709c0000c6
:103e1800749c0000859c0000899c00009a9c00000e
:103e28009e9c0000af9c0000b39c0000c49c000056
:103e3800c89c0000d99c0000dd9c0000ee9c00009e
:103e4800f29c0000039d0000069d0000179d0000e5
:103e58001b9d00002c9d0000309d0000419d00002e
:103e6800449d0000559d0000599d00006a9d00007a
:103e78006e9d00007f9d0000839d0000949d0000c2
:103e8800989d0000a99d0000ac9d0000bd9d00000c
:103e9800c19d0000d29d0000d59d0000e69d000058
:103ea800ea9d0000fb9d0000fe9d00000f9e0000a3
:103eb800129e0000239e0000269e0000379e0000f0
:103ec8003b9e00004c9e0000509e0000619e00003a
:103ed800659e0000769e0000799e00008a9e000084
:103ee8008d9e00009e9e0000a29e0000b39e0000d2
:103ef800b69e0000c79e00000d0a00005061000039
:103f0800726100006d650000746500007220000099
:103f1800446500007363000072690000707400005b
:103f2800696f00006e0900005061000072610000b6
:103f38006d65000074650000722000004162000099
:103f48006272000065760000696100007469000013
:103f58006f6e00000950000061720000616d000082
:103f6800657400006572000020560000616c000056
:103f7800756500000d0a0000004600006f72000021
:103f8800204d00006f7400006f7200002050000088
:103f980061720000616d00006574000065720000c8
:103fa8007309000000550000736500002027000019
:103fb8003f4d000027000000466f000072200000ff
:103fc8005374000061720000746900006e6700009d
:103fd8002050000061720000616d000065740000ef
:103fe8006572000073090000005500007365000049
:103ff800202700003f53000027000000466f000004
:1040080072200000436f00006e740000726f0000a1
:104018006c20000050610000726100006d650000b6
:1040280074650000727300000900000055730000f9
:1040380065200000273f00004327000000460000dd
:104048006f720000204c0000696d00006974000068
:104058002050000061720000616d0000657400006e
:1040680065720000730900000055000073650000c8
:10407800202700003f4c000027000000466f00008a
:1040880072200000426f000061720000642000008e
:1040980050610000726100006d65000074650000e9
:1040a80072730000090000005573000065200000cd
:1040b800273f00004227000000000000c19f0000c9
:1040c800d79f0000e09f0000f99f000002a00000b9
:1040d8001aa0000023a0000039a0000042a00000a0
:1040e80058a000000d0a0000496e0000636f000030
:1040f800727200006563000074200000436f0000c6
:104108006d6d0000616e0000642100002055000004
:1041180073650000202700003f3f000027200000b3
:10412800466f000072200000636f00006d6d000094
:10413800616e00006420000073650000742e0000aa
:104148000d0a0000004d00006f7400006f7200003f
:104158002050000061720000616d0000657400006d
:1041680065720000733a00000d0a0000004c000060
:10417800696d000069740000205000006172000041
:10418800616d00006574000065720000733a0000fc
:104198000d0a0000005300007461000072740000f2
:1041a800696e000067200000506100007261000025
:1041b8006d65000074650000727300003a0d000020
:1041c8000a000000426f00006172000064200000d5
:1041d80050610000726100006d65000074650000a8
:1041e800727300003a0d00000a000000436f0000df
:1041f8006e740000726f00006c20000050610000b7
:10420800726100006d650000746500007273000043
:104218003a0d00000a0000000d0a00000d0a000017
:10422800205300007065000065640000203d000018
:10423800203200003230000030200000722e0000d2
:10424800702e00006d2e0000202000004475000034
:104258007479000043790000636c00006520000059
:104268003d20000037320000252000005065000086
:10427800616b000020430000757200007265000049
:104288006e740000203d0000203000003234000031
:10429800352000006d410000200d00000a000000dc
:1042a8000d0a00000d0a000020460000617500009c
:1042b8006c740000203d0000204600006169000089
:1042c8006c65000064200000746f0000205300003b
:1042d8007461000072740000200d00000a000000e4
:1042e800537000006565000064200000696e0000de
:1042f80020720000706d0000203d000020000000ca
:104308002025000020440000757400007943000057
:10431800796300006c650000203d0000200000006b
:104328003030000030300000303000000000000065
:020000040000fa
:10433800460900005a0000000200000000000000ca
:104348000000d400300000002ccfff00009a0300ca
:1043580000b02f00fdff000000000000000000007a
:104368000000000000000000000000000000000045
:104378000000000000000000000000000000000035
:10438800000000000018000002e803000000f4002c
:104398000100000000000100000100000100000011
:1043a80000000000ff000000000100000100010003
:1043b8000000000050080000980000000000000005
:1043c800ea0900001a00000000000000040a0000ca
:1043d8000a00000000000000e80800005e0000007d
:1043e800020000000100000000320000320032002c
:1043f800003200006400d00007340000440064006c
:1044080000dc05001900640000ac0d00f401f400a4
:10441800018403006400000000c409002800ea00c9
:104428000110270088130800006400001b026400c4
:10443800001905005a0001000001000002000c00ec
:10444800000600000500010000080000030001004c
:1044580000140000010000000090010014ff01009a
:10446800000000000e0a0000060000000000000026
:10447800a00900004a0000000200000030313200ac
:1044880033343500363738003961620063646500bb
:1044980066676800696a6b006c6d6e006f7071000a
:1044a800727374007576770078797a0000000000de
:1044b800211511000e0d0c000b0b0a000a0909004a
:1044c8000909090008080800080808000807070083
:1044d8000707070007070700070707000707000087
:1044e800140a0000040000000200000000000000a0
:0844f8000000000000000000bc
:00000001FF
