:020000040000fa
:080000000001040000000000f3
:020000040000fa
:100200004f862000609f2000000188000000000051
:10021000050007000c0007004a0202000000000071
:100220000040da000000fe004440a9000000200069
:100230000000e0000300320000002000a001880060
:100240004440a80000000600804d2000010020006e
:100250001600370062004000e080480091018800ed
:100260009001ba0062004000e080480091018800df
:100270009002ba0062004000e08048000002eb00fb
:100280006028e10005003a008301e900070033001f
:10029000038009000059eb00040037006128e100e9
:1002a000010032000082eb00050007009101880088
:1002b0001001ba000200e000e6ff3a00000005006d
:1002c000910188008002780062004000e0804800d0
:1002d0003559ba008301e900080032002559ba00f7
:1002e0008301e900050032000400e000f4ff320061
:1002f00015d9ba008301e900f1ff3a0000000600b9
:10030000839f68000100e00002003d0060001000d3
:10031000e08018000300e00002003d0060011100d1
:10032000e0811900050007004f00e00002003b00db
:1003300060001000e0801800000006006022b80095
:10034000060220000000d0008180d2000482d2008a
:100350008582d2000000a0000202520083825a006f
:1003600003003b000202420083824a000000a10019
:100370000603e900f3ff3a0000000600809fbe007c
:100380000000fa0085e0a9004116800080032000eb
:100390000080600010408800104080004300de00b4
:1003a00010408800104080000000d00041852000ef
:1003b0000100400010007800a00e8800100020000e
:1003c0000208e3000f003a000848ec0008e8b70014
:1003d000e64f50000b003a00510880002140880091
:1003e000000020005008880031408000204080003c
:1003f000008040000000d1003040880010c0b300f1
:1004000008e8b7000080fa004f00be000040060078
:100410000000fa008540a9000080fa0000400600b4
:10042000809fbe000000fa008520a9006040800087
:10043000911080000148780060408000d1c0b30076
:1004400090cf100004003a000048a80080812000ee
:100450006040880003003700604080000000e80032
:10046000604088000080fa004f00be000040060097
:10047000801f78000000fa008560a9000014800049
:10048000704088000028a8000080fa004f00780023
:10049000004006000000fa0000002000e01688007e
:1004a00000fc2f00c0168800000e20000006880007
:1004b000000e20002006880085e0a9008de0a8003d
:1004c000600007004f0007007c0007007200070073
:1004d0000000200030408800cfc2bf000080fb0039
:1004e0004600de000080fb00610060000000e000cc
:1004f000f9ff3a0000000000cfc2bf000080fb00ff
:100500004600de000080fb00610060000000e000ab
:1005100003003a00a000200013010700f6ff370097
:100520004116800080032000008060001040880099
:10053000104080004300de00104088001040800022
:100540000000d0004185200001004000100078002c
:10055000a00e880070772000400e88000008a800d8
:1005600013e1a80010c0b30008e8b700400620005f
:10057000fd00070000408000610060000000e00016
:10058000d5ff3200cfc2bf000080fb004600de0076
:100590000080fb00610060000000e0000f003a00f6
:1005a00000702000400e880000002000a00e88008f
:1005b0000008a900cfc2bf000080fb004600de009b
:1005c0000080fb00610060000000e00003003a00d2
:1005d000a0002000e4000700f6ff37000040800084
:1005e0000000d100610060000000e000e1ff320087
:1005f00041000700a60007000028a900ddff370022
:10060000000000000000fa0080ff2f004015880065
:1006100040062000001588000020200010158800ea
:1006200020002000301588000008200020158800d8
:100630008560a9008d60a800a1e2a8000080fa00f2
:10064000000006000000fa00f00f2000200e8800d5
:1006500000702000400e880000002000a00e8800de
:1006600040062000b00e880040062000c00e880022
:1006700040062000d00e8800200e8000300e88003a
:1006800000f02000500e880000002800000e8800b6
:100690000080fa00000006000000fa0000032000bd
:1006a0009008880000002000500888000080eb00bf
:1006b000700888000080fa00000006000000fa00c0
:1006c00000002800601088000000200070108800e2
:1006d000f0012000a01088008d20a800808120005b
:1006e000604088000048a9000068a9000f42a800e7
:1006f0000080fa00000006000400fa00304080008c
:100700006101b80060342c0031022000fcfe0700bb
:10071000000f78001e00780002712200110009000d
:100720000280d800204798002e4090000004e0008e
:10073000050032002e4090008080fb0000712200f6
:100740000088b9001e0f10002e4090000043b0003a
:1007500027e8b7001e007800823e20001100090043
:100760000280d800204798002e4090000004e0004e
:10077000050032002e4090008080fb00803e20006b
:100780000088b9001e0f10002e4090000043b000fa
:1007900028e8b7001e00780042062000110009007a
:1007a0000280d800204798002e4090000004e0000e
:1007b000050032002e4090008080fb0040062000a3
:1007c0000088b9001e0f10002e4090000043b000ba
:1007d00029e8b7001e007800a200200011000900df
:1007e0000280d800204798002e4090000004e000ce
:1007f000050032002e4090008080fb00a000200009
:100800000088b9001e0f10002e4090000043b00079
:100810002ae8b70001c3b3001ec040002be8b700b0
:10082000f081200050408800030007000028a90044
:100830000080fa00000006000000fa00000000003e
:10084000504080001004e0000f0032000fc2bf00d3
:100850000080fb000000d1000080fb006100600010
:100860000000e000f9ff3a00a280200012007800aa
:10087000800078009180fb00811088000000e80073
:1008800000097800eeff37000080fa000000060043
:100890000000fa00304080006101b80060342c0094
:1008a0003102200096fe07008040880071408000e1
:1008b000400020000088b90070408800714080002e
:1008c000804080000080500090408800b14080004f
:1008d0009040800000804000b0408800914080003f
:1008e000e02e20000089b900b140800040012000c6
:1008f0000088b90002004000838048004088de0084
:10090000cf80de00a0408800b10e8000a0408000b3
:1009100000804000b00e880010032000d601e300e4
:1009200004003e0020032000b00e880000002000dc
:10093000b040880000202000d601e300040036000b
:1009400000202000b00e880000002000b040880089
:10095000b00e8000c00e8800b00e8000d00e88005f
:100960000080fa00000006000400fa00000f780082
:100970001e0fe9000080eb009e0f10000a003200fd
:1009800000002000100798009e009000703e20009c
:10099000808f5000f6ff3e001e0090000000e8002f
:1009a00010079800f8ff37000080fa0000000600ea
:020000040000fa
:1009b00000080000180000000000000018080000f7
:1009c0004c000000020000003030300030303000b9
:1009d0000053700065656400203d20003030300019
:1009e0003030200072706d000d0a00000000000021
:1009f0001002040020040200010810000801200079
:100a000000000000001002000420040002010800a1
:100a10001008010020000000000001002010080064
:100a20000108040002042000100200000000000081
:040a300000000000c2
:020000040000fa
:100008001a0500001a0500001a0500001a0500006c
:100018001a0500001a0500001a0500001a0500005c
:100028001a0500001a0500001a0500001a0500004c
:100038001a0500001a0500001a0500001a0500003c
:100048001a05000010020000080200003802000033
:100058001a0500001a0500001a050000be0100007c
:100068001a0500001a0500001a0500001a0500000c
:100078001a0500001a0500001a0500001a050000fc
:100088001a0500001a0500001a0500001a050000ec
:100098001a0500001a0500001a0500001a050000dc
:1000a8001a0500001a0500001a0500001a050000cc
:1000b8001a0500001a0500001a0500001a050000bc
:1000c8001a0500001a0500001a0500001a050000ac
:1000d8001a0500001a0500001a0500001a0500009c
:1000e8001a0500001a0500001a0500001a0500008c
:0800f8001a0500001a050000c2
:020000040000fa
:100108001a0500001a0500001a0500001a0500006b
:100118001a0500001a0500001a0500001a0500005b
:100128001a0500001a0500001a0500001a0500004b
:100138001a0500001a0500001a0500001a0500003b
:100148001a05000010020000080200003802000032
:100158001a0500001a0500001a050000be0100007b
:100168001a0500001a0500001a0500001a0500000b
:100178001a0500001a0500001a0500001a050000fb
:100188001a0500001a0500001a0500001a050000eb
:100198001a0500001a0500001a0500001a050000db
:1001a8001a0500001a0500001a0500001a050000cb
:1001b8001a0500001a0500001a0500001a050000bb
:1001c8001a0500001a0500001a0500001a050000ab
:1001d8001a0500001a0500001a0500001a0500009b
:1001e8001a0500001a0500001a0500001a0500008b
:0801f8001a0500001a050000c1
:020000040000fa
:040a34000000fe00c0
:00000001FF
