:020000040000FA
:040000000EEF00F00F
:020004000000FA
:0400080037EF00F0DE
:040018006EEF00F097
:04001C00006A026A0A
:10002000036A070E946EC8EC00F0F28CF28E9AEC24
:1000300001F02CEC01F0C28203A6F9D7D9EC00F054
:10004000ECEC00F00BEC01F0CCEC01F0DAEC01F0A0
:1000500002AC05D080EC00F0029CB7EC01F02CEC77
:1000600001F052EC01F0C2A2C28228EF00F0A4B26B
:1000700014D0A4B41DD0A4B626D09EBC03D0A4B87E
:100080006AD01100C3CF18F0C4CF17F0C3CF01F06E
:10009000C4CF00F09E9C028C11006FEC00F0829A9D
:1000A00080B4828AA49268CF23F069CF22F0110035
:1000B0006FEC00F0829880B68288A49466CF25F019
:1000C00067CF24F011006FEC00F0829680B8828632
:1000D000A49664CF27F065CF26F01100110003AA83
:1000E00003D000EE07F002D000EE0FF079EC00F044
:1000F000120080501C0BE840E840EB506B6E120081
:10010000200E00641FD0400E0026D8A002D0FF0EA3
:10011000006EFD0E0060006E00504D0DF3380F0BA9
:100120001A6EF438F00B1A12F4380F0B196E6E8237
:100130001950786E766E746E1A50796E776E756E91
:100140006E921200786A766A746A796A776A756A5A
:100150006FEC00F012001E3E02D01D6A08D06CA4A5
:1001600006D01D2A800E1D6402D06C921F804E0E98
:100170001B6209D0200E1C6406D01B6A1C6A1FB0CB
:10018000827AA49811001C3E11001B2AA498110029
:10019000110EC26E100EC16E320EC06E400E9A6EFF
:1001A000000E996E030EB86E000EB96EC2829D8C61
:1001B0001200928492869288190EB76E480E636E72
:1001C000480E626E480E616E000E606E000EB66ED6
:1001D000A382A384A3861200000E7F6E370E7B6E6F
:1001E000010E7A6E4F0E6F6E010E6E6E000E6D6E0A
:1001F000000E6B6E000E6A6E830E6C6E000E716EDA
:10020000000E706E796A776A756A786A766A746ABF
:10021000800E7E6E1200000E076E120E086E240E07
:10022000096E060E0A6E090E0B6E180E0C6E210E6C
:100230000D6E000E0E6E000E0F6E210E106E180E5B
:10024000116E090E126E060E136E240E146E120E2F
:10025000156E000E166E120082B037EF01F003B07B
:1002600012004CEC01F003A012000382120082B4D1
:1002700042EF01F003B012004CEC01F003A01200B9
:100280000384120003A012000390038603A202D08D
:1002900003781200037A1200042E120003808F0EDE
:1002A000046E120003A6120003A266EF01F003A879
:1002B00060EF01F089EC01F003960392828A12004C
:1002C0007AEC01F003960392829A120003A41200C2
:1002D0008278829A7AEC01F0AAEC01F0AAEC01F0A3
:1002E000AAEC01F0AAEC01F089EC01F0039603946A
:1002F000828A12009D9CA392A396A394A3986B6AF2
:10030000786A766A746A796A776A756A029C006AA2
:1003100012000388006A176A186A9D8CA382A3865C
:10032000A384A388026A830E6C6E1F901F946FECE7
:1003300000F01200829A82988296400E00641200A9
:10034000828A800E006412008288D00E006412003F
:1003500082861200FF0E056EFF0E066E062EAEEFB1
:1003600001F0052EACEF01F0056A066A1200213E8D
:10037000120000C02AF017C02DF022C03DF023C0AB
:100380003EF024C03FF025C040F026C041F027C019
:0803900042F0F3EC01F0120051
:08039800810EAF6E240EAC6E65
:1003A000900EAB6E949C948E12009EA8D5EF01F037
:1003B000AD6E1200000EF86E030EF76ECE0EF66EE6
:1003C0000900F550D8B41200D5EC01F0F9D70A0DA8
:1003D000424C4443204D6F746F7220436F6E7472B1
:1003E0006F6C0A0D000057EC02F02AC028F03DECBB
:1003F00003F06BEC02F02DC028F03DEC03F07EEC36
:1004000002F03DC028F03DEC03F03EC028F03DEC8A
:1004100003F08FEC02F03FC028F03DEC03F040C049
:1004200028F03DEC03F0A0EC02F041C028F03DECD8
:1004300003F042C028F03DEC03F01200B1EC02F0F2
:100440002EC028F03DEC03F0C6EC02F02FC028F0DF
:100450003DEC03F0DBEC02F036C028F03DEC03F09D
:1004600037C028F03DEC03F0EBEC02F034C028F08C
:100470003DEC03F035C028F03DEC03F0FBEC02F05E
:1004800038C028F03DEC03F039C028F03DEC03F013
:100490000BEC03F03AC028F03DEC03F03BC028F031
:1004A0003DEC03F03CC028F03DEC03F01200000EE0
:1004B000F86E040EF76EC80EF66E0900F550D8B44B
:1004C0001200D5EC01F0F9D70A0A0D537065656486
:1004D0005265663D2000000EF86E040EF76EF00EB9
:1004E000F66E0900F550D8B41200D5EC01F0F9D73A
:1004F0000A0D4D6F746F7220493D2000000EF86E9A
:10050000050EF76E160EF66E0900F550D8B41200FF
:10051000D5EC01F0F9D70A0D4943313A0000000E3D
:10052000F86E050EF76E380EF66E0900F550D8B469
:100530001200D5EC01F0F9D70A0D4943323A000018
:10054000000EF86E050EF76E5A0EF66E0900F550A5
:10055000D8B41200D5EC01F0F9D70A0D4943333A6B
:100560000000000EF86E050EF76E7C0EF66E0900A8
:10057000F550D8B41200D5EC01F0F9D70A0D437547
:100580007272656E742056203D200000000EF86ED9
:10059000050EF76EA60EF66E0900F550D8B41200DF
:1005A000D5EC01F0F9D70A0D43757272656E7420AF
:1005B00057203D200000000EF86E050EF76ED00E9D
:1005C000F66E0900F550D8B41200D5EC01F0F9D759
:1005D0000A0D53520000000EF86E050EF76EF00E75
:1005E000F66E0900F550D8B41200D5EC01F0F9D739
:1005F0000A0D53460000000EF86E060EF76E100E40
:10060000F66E0900F550D8B41200D5EC01F0F9D718
:100610000A0D45490000000EF86E060EF76E300E0A
:10062000F66E0900F550D8B41200D5EC01F0F9D7F8
:100630000A0D454F0000000EF86E060EF76E500EC4
:10064000F66E0900F550D8B41200D5EC01F0F9D7D8
:10065000464F525741524400000EF86E060EF76E98
:10066000720EF66E0900F550D8B41200D5EC01F008
:10067000F9D752455645525345002850F00BE838FB
:10068000300F4DEC03F0D5EC01F028500F0B300F7C
:100690004DEC03F0D5EC01F01200296E390E2964FF
:0C06A00003D02950070F1200295012004F
:020000040030CA
:0100010006F8
:010002000AF3
:010003003EBE
:010004001CDF
:010005009D5D
:010006008079
:010008000FE8
:01000900C036
:01000A000FE6
:01000B00E014
:01000C000FE4
:01000D0040B2
:00000001FF
