:020000040000FA
:0400000021EF03F0F9
:020004000000FA
:040008000EEF00F007
:0400180020EF00F0E5
:04001C000101E1CF2E
:1000200003F1E2CF04F19EBC86D0A4B297D0A4B471
:10003000A2D0A4B6ADD003C1E1FF04C1E2FF11001C
:10004000006EE0CF02F0D8CF01F09EBA25D09EB06E
:1000500050D09EB806D002C0E0FF005001C0D8FFCB
:1000600010009DA8F8D701010891092F02D09D9892
:10007000F2D7EACF02F1E9CF01F101EE26F00B5100
:10008000EBCFADFF0B2B200E0B19D8B40B6B02C1BD
:10009000EAFF01C1E9FFDFD79DAAD9D70101AECFA1
:1000A00016F1060EAB1420E108B9D5D708A302D08B
:1000B0000889D1D7EACF02F1E9CF01F101EE46F08C
:1000C00008950D5116C1EBFF0D2B200E0D19D8B45C
:1000D0000D6B0C2B02C1EAFF01C1E9FF200E0C19C8
:1000E00001E0B9D70883B7D7AB980000AB88088781
:1000F000B2D701019E90F30ECF6ECB0ECE6E072AC3
:10010000098C00A109D01B3FA6D71C2B1CA7A3D785
:100110001B6B1C6B00839FD700A99DD700B19BD799
:1001200009AE99D7063F97D705510709066F827A1E
:100130008278827690D7C4CF1EF0C4CF03F02168B6
:100140001EC01FF01EC020F003C005F1088A9E9C4F
:10015000C28200A170D7E4C104F06DD768CFE5F189
:1001600069CFE6F1D5EC00F0A49228B064D7829A6A
:1001700080B4828A60D766CFE5F167CFE6F1D5EC2F
:1001800000F0A49428B057D7829880B6828853D7BD
:1001900064CFE5F165CFE6F1D5EC00F0A49628B088
:1001A0004AD7829680B8828646D709A003D010EE3F
:1001B0000EF002D010EE16F080501C0BE840E84024
:1001C000E3506B6E120009A8120009A40ED009AA10
:1001D00007D0A4EC01F0D6EC02F0099809941200C3
:1001E00099EC01F009980994120009A6120099EC03
:1001F00001F0300E0D6EC1EC02F00D2EFCD7A4EC18
:1002000001F0099809960970120009840992098879
:10021000099A120009BA04D0098409920988098A46
:1002200000EC05F0E8CFE2F100EC05F0E8CFE3F1F7
:1002300000EC05F0E8CFE4F1120009860992098884
:100240001200010EE8B002D00990120009801200DD
:100250000950010B42EC05F01E5042EC05F01F5016
:1002600042EC05F0205042EC05F0215042EC05F044
:10027000E5C1E8FF09AAE86A42EC05F0E6C1E8FF3B
:1002800009AAE86A42EC05F0275042EC05F0E7C104
:10029000E8FF42EC05F0E8C1E8FF42EC05F0E9C1F7
:1002A000E8FF42EC05F0EAC1E8FF42EC05F00C0E75
:1002B0001E6F150E1D6F8DEC04F0120001EEB6F0EE
:1002C00025C107F100EC05F0EE6E072FFBD701EE1C
:1002D000B6F0A96AF29EF29EA69CA69E25C107F1E1
:1002E000A684EE50A86E550EA76EAA0EA76EA68223
:1002F000A6B2FED7A92A072FF4D7A6941B6B1C6BB6
:10030000F28E1200086B096B0A6B0B6B0C6B0D6B9A
:100310000E6B0F6B106B116B126B136B146B156BF9
:100320000F830F8908850093009500971B6B1C6B4A
:1003300012006B6A786A766A746A796A776A756A93
:10034000036A046A056A1200036A046A056A1E6A7F
:100350001F6A206A2168086A030E6C6E276A286A81
:10036000256A266AD5EC00F01200089A09AA120044
:1003700028B01200D4C1E8FF0502F3CF23F0F4CF78
:1003800022F0D5C1E8FF0502F35022266E822250EA
:10039000786E766E746E2350796E776E756E6E928F
:1003A0001200AD6AAE6AB06AAF6AAC6AAB6AAA6A9A
:1003B000AB8EAB88AC8AAC84AA800F830F8908858A
:1003C0001200110EC26E000E996E030EB86E400E32
:1003D0009A6E100EC16E7A0EC06EC36AC46A1200A5
:1003E000B00ECD6EF30ECF6ECB0ECE6ECD80120062
:1003F0007E6A000E7F6E4F0E6F6E010E6E6E000EE7
:100400006D6E6B6A6A6A030E6C6E716A706A796AE5
:10041000776A756A786A766A746A1200CEC1E8FFF4
:10042000E8B07F82E8A07F92D2C17BFFD3C17AFF80
:10043000800E7E6E1200FF0E926EC00E936EC70E7F
:10044000946E1200590EB76E480E636E480E626EBF
:10045000480E616E606A800EB66E1200BEC1E8FF83
:10046000E8B621D0240E0E6E060E0F6E000E106E32
:10047000090E116E120E126E000E136E210E146E06
:10048000180E156E180E166E210E176E000E186ED1
:10049000120E196E090E1A6E000E1B6E060E1C6EE1
:1004A000240E1D6E1200000E0E6E120E0F6E240E24
:1004B000106E060E116E090E126E180E136E210EBE
:1004C000146E000E156E000E166E210E176E180EAD
:1004D000186E090E196E060E1A6E240E1B6E120E81
:1004E0001C6E000E1D6E1200F26AF16AF06A9D6ABF
:1004F000A06AA36A9E6AA16AA46A9F6AA26AA56AA0
:100500009F8CA582A584A5869D8C9D8A9D80A382B3
:10051000A384A386930ED06EF28CF28E120001EEAD
:10052000B6F02C0E076FA69CA69EA96AA680A8CF3F
:10053000EEFFA92A072FFAD7120082B0A8EF02F027
:1005400009B21200BBEC02F009A2120009841200E9
:1005500082B4B3EF02F009B21200BBEC02F009A2C0
:1005600012000986120009A212000992098809A442
:100570001200097A12000A2E12000982FF0E0A6E7A
:100580001200FF0E0B6EFF0E0C6E0C2EC5EF02F06C
:100590000B2EC3EF02F00B6A0C6A120000EE00F0A3
:1005A000EE6AEAA2FDD7E9AEFBD71200829A8298E2
:1005B000829612000450055CD8B41AD0D8A00CD092
:1005C000CCC1E8FF055CD8A0E86A066E046004C0F0
:1005D00006F006C005F00CD0CBC123F00550232453
:1005E000D8B0FF0E066E046404C006F006C005F025
:1005F000076A1200099C292A090E296402D0256A7B
:10060000296A6CA40AD0252A010E256406D06C92B2
:10061000F0EC00F0099A2780288028A004D028A2B6
:10062000D6EC02F02882242A130E24641200246AD5
:1006300027B0827A1200CFC1E8FF0302F4CF04F0A2
:020640001200A6
:0E064200D16AF26A0101CD90CEEC02F08FEC8D
:1006500002F01BEC02F0D1EC01F0E1EC01F0F0EC67
:1006600001F022EC02F02EEC02F0F8EC01F0098E21
:10067000008974EC02F0C282AAB001D007D000A9B0
:10068000FBD782A0A2D082A4A0D0F6D7F29C7CECAB
:1006900005F0F28C0C51FEE000A525EC04F02AECEC
:1006A00004F000B7B3D000B5F5D7050E25C119F198
:1006B0001963B6D000EC05F0490E1963B1D000EC17
:1006C00005F04D0E1963ACD000EC05F0430E196334
:1006D000A7D000EC05F0470E1963A2D000EC05F09E
:1006E000550E19639DD000EC05F0490E196398D0A2
:1006F0000081F2EC04F00A0E1E6F490E1D6F200EF1
:1007000042EC05F0030E42EC05F0110E42EC05F050
:10071000140E42EC05F0B6C1E8FF42EC05F0B7C19B
:10072000E8FF42EC05F0000E42EC05F0000E42EC52
:1007300005F0000E42EC05F0000E42EC05F08DECE9
:1007400004F0D6EC02F021EC01F099EC01F000D0BD
:1007500000B366D00C5142E000A525EC04F02AEC71
:1007600004F000B753D000B539D000EC05F0150AFD
:1007700021E01951120A0FE01951110A07E019512D
:10078000140A13E01951160A1AE040D0F2EC04F0F2
:1007900005EC01F0DDD7F2EC04F00AEC01F000A961
:1007A000D7D70EEC02F00099D3D7F2EC04F01DEC91
:1007B00001F0CED7F2EC04F028EC01F0C9D75EECE2
:1007C00001F0F2EC04F00089C3D709AE07D00EECBB
:1007D00002F0D6EC02F021EC01F0099E00A19DECA4
:1007E00002F0E3EC00F009BCFAEC02F000A11BEC13
:1007F00003F008BAB5EC01F0C70E076404D009AAEB
:1008000002D0DAEC02F000A1E0D7A2D700B308D002
:1008100000A106D0F29EF29E82EC01F0F28E98D7F3
:10082000F29EF29EAF6AB06A05EC01F0E3EC00F0D4
:1008300082EC01F000B100990091AA80D6EC02F0A0
:08084000276A286AF28E18D71E
:0808480000870000206B216B0A
:100850000085120000B3F8D708B51200F29C7CECBA
:1008600005F0F28C236F2051E8460C0FF924176F26
:10087000000EFA22FB221751F96E0FD010D011D0C2
:1008800012D019D024D02ED034D035D01200202B45
:100890002193E0D72363D8D7FAD7020EFBD7040EF3
:1008A000F9D7020EF7D72FD8E8B0D4D72351256F48
:1008B000076F226FECD727D8E8B0CCD72351246F2D
:1008C000222714EC05F02567E2D7202BE0D71BD8B0
:1008D000E8B0C0D721932351222714EC05F0072F4D
:1008E000B9D7D5D710D8E8B0B5D722512363ACD744
:1008F000CED7040ECFD72351030A01E0A5D7009528
:100900001C6B1B6B12002351040A03E021A3000C93
:100910009BD7217321A3000C010C206B216B08B124
:10092000FED72051E8460C0FF924176F000EFA226B
:10093000FB221751F96E09D00CD00FD012D01CD069
:100940002AD037D03FD042D01200020E5CEC05F026
:1009500041D0040E5CEC05F03DD0020E5CEC05F0DD
:1009600039D021B303D01E51040A37E01E515CEC8C
:1009700005F01EC122F12ED021B303D01D51040A6F
:100980002CE01D5122275CEC05F01EC107F11E670B
:1009900021D0202B1FD021B304D02EEC05F0040A67
:1009A0001CE021931A5122275CEC05F0072FB7D7E2
:1009B00011D021B303D02251040A0FE022515CEC84
:1009C00005F008D0040E5CEC05F004D0030E5CECDE
:1009D00005F012002193202BA2D7040E5CEC05F049
:1009E00021839DD7060E1D6F245142EC05F01EC1D8
:1009F0001FF1010E1E6F8DEC04F01FC11EF11200DD
:100A00000101105102E10F83000C21EE66F012513A
:100A1000DBCF19F1122B300E1219D8B4126B10075C
:100A20000F910F95195112000101196F0FB51200A6
:100A30000FA102D00F85120021EE66F00F93115125
:100A400019C1DBFF112B300E1119D8B4116B102B0B
:100A5000300E101901E012000F8112000101135134
:100A600002E10F89000C21EE96F01551DBCF1AF14F
:100A7000152B200E1519D8B4156B13070F970F9B64
:100A80001A51120001011A6F0FBB12000FA702D0FA
:100A90000F8B120021EE96F00F9914511AC1DBFF53
:100AA000142B200E1419D8B4146B132B200E131909
:100AB00001E012000F8712009D980101186F08B124
:100AC0001200095107E118C1ADFF0B2B200E0B19C5
:100AD000D8B40B6B21EE26F00A5118C1DBFF0A2BAC
:100AE000200E0A19D8B40A6B092B200E0919D8A4B4
:100AF00001D008819D881200010121EE46F00E51BF
:100B0000DBCF18F10E2B200E0E19D8B40E6B0C4F44
:0A0B10000885089308991851120097
:020000040030CA
:0100010006F8
:010002000AF3
:010003003EBE
:010004001CDF
:010005009D5D
:010006008079
:010008000FE8
:01000900C036
:01000A000FE6
:01000B00E014
:01000C000FE4
:01000D0040B2
:0200000400F00A
:10000000000082323CFC08040C0000C83F7A0D005E
:1000100000000000000A0A732026E50338011A00D8
:0C0020003E00000000000000000A00008C
:00000001FF
